{
  "_format": "hh-sol-artifact-1",
  "contractName": "ContractCanBeDestroyed",
  "sourceName": "contracts/SelfDestruct.sol",
  "abi": [
    {
      "inputs": [
        {
          "internalType": "address",
          "name": "receiver",
          "type": "address"
        }
      ],
      "name": "destroy",
      "outputs": [],
      "stateMutability": "nonpayable",
      "type": "function"
    },
    {
      "inputs": [],
      "name": "increment",
      "outputs": [],
      "stateMutability": "nonpayable",
      "type": "function"
    },
    {
      "inputs": [],
      "name": "number",
      "outputs": [
        {
          "internalType": "uint256",
          "name": "",
          "type": "uint256"
        }
      ],
      "stateMutability": "view",
      "type": "function"
    },
    {
      "inputs": [
        {
          "internalType": "uint256",
          "name": "newNumber",
          "type": "uint256"
        }
      ],
      "name": "setNumber",
      "outputs": [],
      "stateMutability": "nonpayable",
      "type": "function"
    },
    {
      "stateMutability": "payable",
      "type": "receive"
    }
  ],
  "bytecode": "0x608060405234801561001057600080fd5b50610195806100206000396000f3fe6080604052600436106100425760003560e01c8062f55d9d1461004e5780633fb5c1cb146100705780638381f58a14610090578063d09de08a146100b857600080fd5b3661004957005b600080fd5b34801561005a57600080fd5b5061006e6100693660046100ef565b6100cd565b005b34801561007c57600080fd5b5061006e61008b36600461011f565b600055565b34801561009c57600080fd5b506100a660005481565b60405190815260200160405180910390f35b3480156100c457600080fd5b5061006e6100d9565b806001600160a01b0316ff5b6000805490806100e883610138565b9190505550565b60006020828403121561010157600080fd5b81356001600160a01b038116811461011857600080fd5b9392505050565b60006020828403121561013157600080fd5b5035919050565b60006001820161015857634e487b7160e01b600052601160045260246000fd5b506001019056fea2646970667358221220c2bc853831ed9b7f992633bdee3bff2ef5b1cf7ecdeea734b8878e91d2333ca164736f6c63430008160033",
  "linkReferences": {},
  "deployedLinkReferences": {}
}