{
  "_format": "hh-sol-artifact-1",
  "contractName": "SelfDestructTester",
  "sourceName": "contracts/SelfDestruct.sol",
  "abi": [
    {
      "inputs": [],
      "name": "counterAddress",
      "outputs": [
        {
          "internalType": "address",
          "name": "",
          "type": "address"
        }
      ],
      "stateMutability": "view",
      "type": "function"
    },
    {
      "inputs": [],
      "name": "deploy_and_destroy",
      "outputs": [],
      "stateMutability": "payable",
      "type": "function"
    },
    {
      "inputs": [
        {
          "internalType": "address payable",
          "name": "toDestroy",
          "type": "address"
        }
      ],
      "name": "destroy",
      "outputs": [],
      "stateMutability": "nonpayable",
      "type": "function"
    },
    {
      "stateMutability": "payable",
      "type": "receive"
    }
  ],
  "bytecode": "0x608060405234801561001057600080fd5b50610462806100206000396000f3fe6080604052600436106100375760003560e01c8062f55d9d146100435780631de4ce681461006557806350434ec7146100a157600080fd5b3661003e57005b600080fd5b34801561004f57600080fd5b5061006361005e366004610247565b6100a9565b005b34801561007157600080fd5b50600054610085906001600160a01b031681565b6040516001600160a01b03909116815260200160405180910390f35b610063610140565b60405162f55d9d60e01b815230600482015281906001600160a01b0382169062f55d9d90602401600060405180830381600087803b1580156100ea57600080fd5b505af11580156100fe573d6000803e3d6000fd5b50506040516001600160a01b038516925060009150670de0b6b3a76400009082818181858883f1935050505015801561013b573d6000803e3d6000fd5b505050565b600060405161014e9061023a565b604051809103906000f08015801561016a573d6000803e3d6000fd5b5060405190915081906001600160a01b03821690600090670de0b6b3a76400009082818181858883f193505050501580156101a9573d6000803e3d6000fd5b5060405162f55d9d60e01b81523060048201526001600160a01b0383169062f55d9d90602401600060405180830381600087803b1580156101e957600080fd5b505af11580156101fd573d6000803e3d6000fd5b50506040516001600160a01b038416925060009150670de0b6b3a76400009082818181858883f1935050505015801561013b573d6000803e3d6000fd5b6101b58061027883390190565b60006020828403121561025957600080fd5b81356001600160a01b038116811461027057600080fd5b939250505056fe608060405234801561001057600080fd5b50610195806100206000396000f3fe6080604052600436106100425760003560e01c8062f55d9d1461004e5780633fb5c1cb146100705780638381f58a14610090578063d09de08a146100b857600080fd5b3661004957005b600080fd5b34801561005a57600080fd5b5061006e6100693660046100ef565b6100cd565b005b34801561007c57600080fd5b5061006e61008b36600461011f565b600055565b34801561009c57600080fd5b506100a660005481565b60405190815260200160405180910390f35b3480156100c457600080fd5b5061006e6100d9565b806001600160a01b0316ff5b6000805490806100e883610138565b9190505550565b60006020828403121561010157600080fd5b81356001600160a01b038116811461011857600080fd5b9392505050565b60006020828403121561013157600080fd5b5035919050565b60006001820161015857634e487b7160e01b600052601160045260246000fd5b506001019056fea2646970667358221220c2bc853831ed9b7f992633bdee3bff2ef5b1cf7ecdeea734b8878e91d2333ca164736f6c63430008160033a264697066735822122038c64e89aed37bebb48b073405f81d16f9de6d62e3247b214231f865567d0a9764736f6c63430008160033",
  "linkReferences": {},
  "deployedLinkReferences": {}
}