{
  "_format": "hh-sol-artifact-1",
  "contractName": "Storage",
  "sourceName": "contracts/Storage.sol",
  "abi": [
    {
      "inputs": [],
      "stateMutability": "nonpayable",
      "type": "constructor"
    },
    {
      "inputs": [
        {
          "internalType": "uint64",
          "name": "index",
          "type": "uint64"
        }
      ],
      "name": "change",
      "outputs": [],
      "stateMutability": "nonpayable",
      "type": "function"
    },
    {
      "inputs": [
        {
          "internalType": "uint64",
          "name": "index",
          "type": "uint64"
        }
      ],
      "name": "reset",
      "outputs": [],
      "stateMutability": "nonpayable",
      "type": "function"
    },
    {
      "inputs": [
        {
          "internalType": "uint64",
          "name": "index",
          "type": "uint64"
        }
      ],
      "name": "set",
      "outputs": [],
      "stateMutability": "nonpayable",
      "type": "function"
    }
  ],
  "bytecode": "0x608060405234801561001057600080fd5b50610170806100206000396000f3fe608060405234801561001057600080fd5b50600436106100415760003560e01c806307c488ff146100465780631d8c311f1461005b578063e365981c14610087575b600080fd5b6100596100543660046100e2565b6100b0565b005b6100596100693660046100e2565b67ffffffffffffffff16600090815260208190526040902060019055565b6100596100953660046100e2565b67ffffffffffffffff16600090815260208190526040812055565b67ffffffffffffffff811660009081526020819052604081208054600192906100da908490610113565b909155505050565b6000602082840312156100f457600080fd5b813567ffffffffffffffff8116811461010c57600080fd5b9392505050565b8082018082111561013457634e487b7160e01b600052601160045260246000fd5b9291505056fea2646970667358221220cd3ea994a00644ba8d8a906ef4f74e7531e4a42aba74e1a8ae685ec201a083b864736f6c63430008140033",
  "linkReferences": {},
  "deployedLinkReferences": {}
}