{
  "_format": "hh-sol-artifact-1",
  "contractName": "CIP98Test",
  "sourceName": "contracts/origin/cip98_test.sol",
  "abi": [
    {
      "inputs": [],
      "name": "query",
      "outputs": [
        {
          "internalType": "bytes32",
          "name": "",
          "type": "bytes32"
        }
      ],
      "stateMutability": "view",
      "type": "function"
    }
  ],
  "bytecode": "0x608060405234801561001057600080fd5b5060b28061001f6000396000f3fe6080604052348015600f57600080fd5b506004361060285760003560e01c80632c46b20514602d575b600080fd5b60336045565b60405190815260200160405180910390f35b600060506001436056565b40905090565b81810381811115607657634e487b7160e01b600052601160045260246000fd5b9291505056fea2646970667358221220b764f69f883ea3104447f5f35cb9c88e18b142bc91776232a621571d3e7c0bbc64736f6c63430008160033",
  "linkReferences": {},
  "deployedLinkReferences": {}
}