{
  "_format": "hh-sol-artifact-1",
  "contractName": "CommissionPrivilegeTest",
  "sourceName": "contracts/CommissionPrivilegeTest.sol",
  "abi": [
    {
      "inputs": [
        {
          "internalType": "address",
          "name": "account",
          "type": "address"
        }
      ],
      "name": "add",
      "outputs": [],
      "stateMutability": "payable",
      "type": "function"
    },
    {
      "inputs": [],
      "name": "foo",
      "outputs": [],
      "stateMutability": "payable",
      "type": "function"
    },
    {
      "inputs": [
        {
          "internalType": "uint256",
          "name": "s1",
          "type": "uint256"
        },
        {
          "internalType": "uint256",
          "name": "e1",
          "type": "uint256"
        },
        {
          "internalType": "uint256",
          "name": "s2",
          "type": "uint256"
        },
        {
          "internalType": "uint256",
          "name": "e2",
          "type": "uint256"
        }
      ],
      "name": "par",
      "outputs": [],
      "stateMutability": "nonpayable",
      "type": "function"
    },
    {
      "inputs": [
        {
          "internalType": "uint256",
          "name": "start",
          "type": "uint256"
        },
        {
          "internalType": "uint256",
          "name": "end",
          "type": "uint256"
        }
      ],
      "name": "par_add",
      "outputs": [],
      "stateMutability": "nonpayable",
      "type": "function"
    },
    {
      "inputs": [
        {
          "internalType": "uint256",
          "name": "s1",
          "type": "uint256"
        },
        {
          "internalType": "uint256",
          "name": "e1",
          "type": "uint256"
        },
        {
          "internalType": "uint256",
          "name": "s2",
          "type": "uint256"
        },
        {
          "internalType": "uint256",
          "name": "e2",
          "type": "uint256"
        }
      ],
      "name": "par_add_del",
      "outputs": [],
      "stateMutability": "nonpayable",
      "type": "function"
    },
    {
      "inputs": [
        {
          "internalType": "uint256",
          "name": "start",
          "type": "uint256"
        },
        {
          "internalType": "uint256",
          "name": "end",
          "type": "uint256"
        }
      ],
      "name": "par_del",
      "outputs": [],
      "stateMutability": "nonpayable",
      "type": "function"
    },
    {
      "inputs": [
        {
          "internalType": "uint256",
          "name": "l",
          "type": "uint256"
        },
        {
          "internalType": "uint256",
          "name": "r",
          "type": "uint256"
        },
        {
          "internalType": "uint256",
          "name": "d",
          "type": "uint256"
        }
      ],
      "name": "rec",
      "outputs": [],
      "stateMutability": "payable",
      "type": "function"
    },
    {
      "inputs": [
        {
          "internalType": "address",
          "name": "account",
          "type": "address"
        }
      ],
      "name": "remove",
      "outputs": [],
      "stateMutability": "payable",
      "type": "function"
    },
    {
      "inputs": [
        {
          "internalType": "uint256",
          "name": "",
          "type": "uint256"
        }
      ],
      "name": "ss",
      "outputs": [
        {
          "internalType": "uint256",
          "name": "",
          "type": "uint256"
        }
      ],
      "stateMutability": "view",
      "type": "function"
    }
  ],
  "bytecode": "0x608060405234801561001057600080fd5b50610dc8806100206000396000f3fe6080604052600436106100865760003560e01c8063989d12b611610059578063989d12b614610115578063c298557814610152578063c2b114aa1461015c578063d626f80714610178578063f3354720146101a157610086565b80630a3b0a4f1461008b57806329092d0e146100a75780632b44ec00146100c35780633ca87b6b146100ec575b600080fd5b6100a560048036038101906100a09190610938565b6101ca565b005b6100c160048036038101906100bc9190610938565b6102ea565b005b3480156100cf57600080fd5b506100ea60048036038101906100e5919061099b565b61040a565b005b3480156100f857600080fd5b50610113600480360381019061010e91906109db565b610448565b005b34801561012157600080fd5b5061013c60048036038101906101379190610a42565b610602565b6040516101499190610a7e565b60405180910390f35b61015a61061a565b005b61017660048036038101906101719190610a99565b61061c565b005b34801561018457600080fd5b5061019f600480360381019061019a91906109db565b6106dd565b005b3480156101ad57600080fd5b506101c860048036038101906101c3919061099b565b610897565b005b6000600167ffffffffffffffff8111156101e7576101e6610aec565b5b6040519080825280602002602001820160405280156102155781602001602082028036833780820191505090505b509050818160008151811061022d5761022c610b1b565b5b602002602001019073ffffffffffffffffffffffffffffffffffffffff16908173ffffffffffffffffffffffffffffffffffffffff168152505073088800000000000000000000000000000000000173ffffffffffffffffffffffffffffffffffffffff166310128d3e826040518263ffffffff1660e01b81526004016102b49190610c08565b600060405180830381600087803b1580156102ce57600080fd5b505af11580156102e2573d6000803e3d6000fd5b505050505050565b6000600167ffffffffffffffff81111561030757610306610aec565b5b6040519080825280602002602001820160405280156103355781602001602082028036833780820191505090505b509050818160008151811061034d5761034c610b1b565b5b602002602001019073ffffffffffffffffffffffffffffffffffffffff16908173ffffffffffffffffffffffffffffffffffffffff168152505073088800000000000000000000000000000000000173ffffffffffffffffffffffffffffffffffffffff1663d2932db6826040518263ffffffff1660e01b81526004016103d49190610c08565b600060405180830381600087803b1580156103ee57600080fd5b505af1158015610402573d6000803e3d6000fd5b505050505050565b60008290505b8181101561044357600080600083815260200190815260200160002081905550808061043b90610c59565b915050610410565b505050565b3073ffffffffffffffffffffffffffffffffffffffff1663f335472085856040518363ffffffff1660e01b8152600401610483929190610ca1565b600060405180830381600087803b15801561049d57600080fd5b505af11580156104b1573d6000803e3d6000fd5b505050503073ffffffffffffffffffffffffffffffffffffffff16632b44ec0083836040518363ffffffff1660e01b81526004016104f0929190610ca1565b600060405180830381600087803b15801561050a57600080fd5b505af115801561051e573d6000803e3d6000fd5b505050503073ffffffffffffffffffffffffffffffffffffffff16632b44ec0085856040518363ffffffff1660e01b815260040161055d929190610ca1565b600060405180830381600087803b15801561057757600080fd5b505af115801561058b573d6000803e3d6000fd5b505050503073ffffffffffffffffffffffffffffffffffffffff1663f335472083836040518363ffffffff1660e01b81526004016105ca929190610ca1565b600060405180830381600087803b1580156105e457600080fd5b505af11580156105f8573d6000803e3d6000fd5b5050505050505050565b60006020528060005260406000206000915090505481565b565b600081036106635760008390505b8281101561065d57600080600083815260200190815260200160002081905550808061065590610c59565b91505061062a565b506106d8565b60008390505b828110156106a75760028261067e9190610cf9565b60008083815260200190815260200160002081905550808061069f90610c59565b915050610669565b506106d76001846106b89190610d2a565b6001846106c59190610d5e565b6001846106d29190610d5e565b61061c565b5b505050565b3073ffffffffffffffffffffffffffffffffffffffff1663f335472085856040518363ffffffff1660e01b8152600401610718929190610ca1565b600060405180830381600087803b15801561073257600080fd5b505af1158015610746573d6000803e3d6000fd5b505050503073ffffffffffffffffffffffffffffffffffffffff16632b44ec0085856040518363ffffffff1660e01b8152600401610785929190610ca1565b600060405180830381600087803b15801561079f57600080fd5b505af11580156107b3573d6000803e3d6000fd5b505050503073ffffffffffffffffffffffffffffffffffffffff16632b44ec0083836040518363ffffffff1660e01b81526004016107f2929190610ca1565b600060405180830381600087803b15801561080c57600080fd5b505af1158015610820573d6000803e3d6000fd5b505050503073ffffffffffffffffffffffffffffffffffffffff1663f335472083836040518363ffffffff1660e01b815260040161085f929190610ca1565b600060405180830381600087803b15801561087957600080fd5b505af115801561088d573d6000803e3d6000fd5b5050505050505050565b60008290505b818110156108d05760016000808381526020019081526020016000208190555080806108c890610c59565b91505061089d565b505050565b600080fd5b600073ffffffffffffffffffffffffffffffffffffffff82169050919050565b6000610905826108da565b9050919050565b610915816108fa565b811461092057600080fd5b50565b6000813590506109328161090c565b92915050565b60006020828403121561094e5761094d6108d5565b5b600061095c84828501610923565b91505092915050565b6000819050919050565b61097881610965565b811461098357600080fd5b50565b6000813590506109958161096f565b92915050565b600080604083850312156109b2576109b16108d5565b5b60006109c085828601610986565b92505060206109d185828601610986565b9150509250929050565b600080600080608085870312156109f5576109f46108d5565b5b6000610a0387828801610986565b9450506020610a1487828801610986565b9350506040610a2587828801610986565b9250506060610a3687828801610986565b91505092959194509250565b600060208284031215610a5857610a576108d5565b5b6000610a6684828501610986565b91505092915050565b610a7881610965565b82525050565b6000602082019050610a936000830184610a6f565b92915050565b600080600060608486031215610ab257610ab16108d5565b5b6000610ac086828701610986565b9350506020610ad186828701610986565b9250506040610ae286828701610986565b9150509250925092565b7f4e487b7100000000000000000000000000000000000000000000000000000000600052604160045260246000fd5b7f4e487b7100000000000000000000000000000000000000000000000000000000600052603260045260246000fd5b600081519050919050565b600082825260208201905092915050565b6000819050602082019050919050565b610b7f816108fa565b82525050565b6000610b918383610b76565b60208301905092915050565b6000602082019050919050565b6000610bb582610b4a565b610bbf8185610b55565b9350610bca83610b66565b8060005b83811015610bfb578151610be28882610b85565b9750610bed83610b9d565b925050600181019050610bce565b5085935050505092915050565b60006020820190508181036000830152610c228184610baa565b905092915050565b7f4e487b7100000000000000000000000000000000000000000000000000000000600052601160045260246000fd5b6000610c6482610965565b91507fffffffffffffffffffffffffffffffffffffffffffffffffffffffffffffffff8203610c9657610c95610c2a565b5b600182019050919050565b6000604082019050610cb66000830185610a6f565b610cc36020830184610a6f565b9392505050565b7f4e487b7100000000000000000000000000000000000000000000000000000000600052601260045260246000fd5b6000610d0482610965565b9150610d0f83610965565b925082610d1f57610d1e610cca565b5b828206905092915050565b6000610d3582610965565b9150610d4083610965565b9250828201905080821115610d5857610d57610c2a565b5b92915050565b6000610d6982610965565b9150610d7483610965565b9250828203905081811115610d8c57610d8b610c2a565b5b9291505056fea2646970667358221220ac750358132e126943c121779e9e0d962cc119b2d23919025399b36d9e545f6364736f6c63430008130033",
  "linkReferences": {},
  "deployedLinkReferences": {}
}