{
  "_format": "hh-sol-artifact-1",
  "contractName": "Error",
  "sourceName": "contracts/Error.sol",
  "abi": [
    {
      "inputs": [
        {
          "internalType": "uint256",
          "name": "balance",
          "type": "uint256"
        },
        {
          "internalType": "uint256",
          "name": "withdrawAmount",
          "type": "uint256"
        }
      ],
      "name": "InsufficientBalance",
      "type": "error"
    },
    {
      "inputs": [],
      "name": "num",
      "outputs": [
        {
          "internalType": "uint256",
          "name": "",
          "type": "uint256"
        }
      ],
      "stateMutability": "view",
      "type": "function"
    },
    {
      "inputs": [],
      "name": "testAssert",
      "outputs": [],
      "stateMutability": "view",
      "type": "function"
    },
    {
      "inputs": [
        {
          "internalType": "uint256",
          "name": "_withdrawAmount",
          "type": "uint256"
        }
      ],
      "name": "testCustomError",
      "outputs": [],
      "stateMutability": "view",
      "type": "function"
    },
    {
      "inputs": [
        {
          "internalType": "uint256",
          "name": "_i",
          "type": "uint256"
        }
      ],
      "name": "testRequire",
      "outputs": [],
      "stateMutability": "pure",
      "type": "function"
    },
    {
      "inputs": [
        {
          "internalType": "uint256",
          "name": "_i",
          "type": "uint256"
        }
      ],
      "name": "testRevert",
      "outputs": [],
      "stateMutability": "pure",
      "type": "function"
    },
    {
      "inputs": [
        {
          "internalType": "uint256",
          "name": "x",
          "type": "uint256"
        }
      ],
      "name": "yul_revert",
      "outputs": [],
      "stateMutability": "pure",
      "type": "function"
    }
  ],
  "bytecode": "0x608060405234801561001057600080fd5b506101d2806100206000396000f3fe608060405234801561001057600080fd5b50600436106100625760003560e01c806320987767146100675780632b813bc01461007c5780634e70b1dc14610084578063699f66031461009f57806375f7286c146100b2578063b8bd717f14610067575b600080fd5b61007a61007536600461016d565b6100c5565b005b61007a61011d565b61008d60005481565b60405190815260200160405180910390f35b61007a6100ad36600461016d565b61012f565b61007a6100c036600461016d565b61013d565b600a811161011a5760405162461bcd60e51b815260206004820152601d60248201527f496e707574206d7573742062652067726561746572207468616e20313000000060448201526064015b60405180910390fd5b50565b6000541561012d5761012d610186565b565b600a81111561011a57600080fd5b47818110156101695760405163cf47918160e01b81526004810182905260248101839052604401610111565b5050565b60006020828403121561017f57600080fd5b5035919050565b634e487b7160e01b600052600160045260246000fdfea264697066735822122007ea70e1e76a93259eac93eb38b01dec4a502dff44b357107596a6650fb5550164736f6c63430008130033",
  "linkReferences": {},
  "deployedLinkReferences": {}
}