{
  "_format": "hh-sol-artifact-1",
  "contractName": "ContextUser",
  "sourceName": "contracts/origin/ContextUser.sol",
  "abi": [
    {
      "anonymous": false,
      "inputs": [
        {
          "indexed": false,
          "internalType": "uint256",
          "name": "",
          "type": "uint256"
        }
      ],
      "name": "Notify",
      "type": "event"
    },
    {
      "inputs": [],
      "name": "getBlockNumber",
      "outputs": [
        {
          "internalType": "uint256",
          "name": "",
          "type": "uint256"
        }
      ],
      "stateMutability": "nonpayable",
      "type": "function"
    },
    {
      "inputs": [],
      "name": "getEpochNumber",
      "outputs": [
        {
          "internalType": "uint256",
          "name": "",
          "type": "uint256"
        }
      ],
      "stateMutability": "nonpayable",
      "type": "function"
    }
  ],
  "bytecode": "0x608060405234801561001057600080fd5b506101a5806100206000396000f3fe608060405234801561001057600080fd5b50600436106100365760003560e01c806342cbb15c1461003b5780639a7b3be714610055575b600080fd5b61004361005d565b60405190815260200160405180910390f35b61004361009d565b60007f58e29c71e90b1ef7e5b93ad53ef7fbfe517dfaba0aaa2373643b5fa2d118ad694360405161009091815260200190565b60405180910390a1504390565b6000807308880000000000000000000000000000000000046001600160a01b031663f4145a836040518163ffffffff1660e01b8152600401602060405180830381865afa1580156100f2573d6000803e3d6000fd5b505050506040513d601f19601f820116820180604052508101906101169190610156565b90507f58e29c71e90b1ef7e5b93ad53ef7fbfe517dfaba0aaa2373643b5fa2d118ad698160405161014991815260200190565b60405180910390a1919050565b60006020828403121561016857600080fd5b505191905056fea26469706673582212207526403a353d3a556b3d917015b36fc9de26db1a611ecd12d8711fe56871c85c64736f6c63430008160033",
  "linkReferences": {},
  "deployedLinkReferences": {}
}