{
  "_format": "hh-sol-artifact-1",
  "contractName": "AdvancedTokenVote1202",
  "sourceName": "contracts/VoteTokenTest.sol",
  "abi": [
    {
      "inputs": [],
      "stateMutability": "nonpayable",
      "type": "constructor"
    },
    {
      "anonymous": false,
      "inputs": [
        {
          "indexed": false,
          "internalType": "uint256",
          "name": "issueId",
          "type": "uint256"
        },
        {
          "indexed": false,
          "internalType": "bool",
          "name": "newIsOpen",
          "type": "bool"
        }
      ],
      "name": "OnStatusChange",
      "type": "event"
    },
    {
      "anonymous": false,
      "inputs": [
        {
          "indexed": false,
          "internalType": "uint256",
          "name": "issueId",
          "type": "uint256"
        },
        {
          "indexed": true,
          "internalType": "address",
          "name": "_from",
          "type": "address"
        },
        {
          "indexed": false,
          "internalType": "uint256",
          "name": "_value",
          "type": "uint256"
        }
      ],
      "name": "OnVote",
      "type": "event"
    },
    {
      "inputs": [
        {
          "internalType": "uint256",
          "name": "issueId",
          "type": "uint256"
        }
      ],
      "name": "availableOptions",
      "outputs": [
        {
          "internalType": "uint256[]",
          "name": "options_",
          "type": "uint256[]"
        }
      ],
      "stateMutability": "view",
      "type": "function"
    },
    {
      "inputs": [
        {
          "internalType": "uint256",
          "name": "issueId",
          "type": "uint256"
        },
        {
          "internalType": "address",
          "name": "addr",
          "type": "address"
        }
      ],
      "name": "ballotOf",
      "outputs": [
        {
          "internalType": "uint256",
          "name": "option",
          "type": "uint256"
        }
      ],
      "stateMutability": "view",
      "type": "function"
    },
    {
      "inputs": [
        {
          "internalType": "uint256",
          "name": "",
          "type": "uint256"
        },
        {
          "internalType": "address",
          "name": "",
          "type": "address"
        }
      ],
      "name": "ballots",
      "outputs": [
        {
          "internalType": "uint256",
          "name": "",
          "type": "uint256"
        }
      ],
      "stateMutability": "view",
      "type": "function"
    },
    {
      "inputs": [
        {
          "internalType": "uint256",
          "name": "issueId",
          "type": "uint256"
        },
        {
          "internalType": "address",
          "name": "_tokenAddr",
          "type": "address"
        },
        {
          "internalType": "uint256[]",
          "name": "options_",
          "type": "uint256[]"
        },
        {
          "internalType": "address[]",
          "name": "qualifiedVoters_",
          "type": "address[]"
        },
        {
          "internalType": "string",
          "name": "issueDesc_",
          "type": "string"
        }
      ],
      "name": "createIssue",
      "outputs": [],
      "stateMutability": "nonpayable",
      "type": "function"
    },
    {
      "inputs": [
        {
          "internalType": "uint256",
          "name": "issueId",
          "type": "uint256"
        }
      ],
      "name": "getStatus",
      "outputs": [
        {
          "internalType": "bool",
          "name": "isOpen_",
          "type": "bool"
        }
      ],
      "stateMutability": "view",
      "type": "function"
    },
    {
      "inputs": [
        {
          "internalType": "uint256",
          "name": "issueId",
          "type": "uint256"
        }
      ],
      "name": "issueDescription",
      "outputs": [
        {
          "internalType": "string",
          "name": "desc",
          "type": "string"
        }
      ],
      "stateMutability": "view",
      "type": "function"
    },
    {
      "inputs": [
        {
          "internalType": "uint256",
          "name": "",
          "type": "uint256"
        }
      ],
      "name": "issueDescriptions",
      "outputs": [
        {
          "internalType": "string",
          "name": "",
          "type": "string"
        }
      ],
      "stateMutability": "view",
      "type": "function"
    },
    {
      "inputs": [
        {
          "internalType": "uint256",
          "name": "issueId",
          "type": "uint256"
        },
        {
          "internalType": "uint256",
          "name": "option",
          "type": "uint256"
        }
      ],
      "name": "optionDescription",
      "outputs": [
        {
          "internalType": "string",
          "name": "desc",
          "type": "string"
        }
      ],
      "stateMutability": "view",
      "type": "function"
    },
    {
      "inputs": [
        {
          "internalType": "uint256",
          "name": "issueId",
          "type": "uint256"
        },
        {
          "internalType": "bool",
          "name": "isOpen_",
          "type": "bool"
        }
      ],
      "name": "setStatus",
      "outputs": [
        {
          "internalType": "bool",
          "name": "success",
          "type": "bool"
        }
      ],
      "stateMutability": "nonpayable",
      "type": "function"
    },
    {
      "inputs": [
        {
          "internalType": "uint256",
          "name": "issueId",
          "type": "uint256"
        },
        {
          "internalType": "uint256",
          "name": "option",
          "type": "uint256"
        }
      ],
      "name": "vote",
      "outputs": [
        {
          "internalType": "bool",
          "name": "success",
          "type": "bool"
        }
      ],
      "stateMutability": "nonpayable",
      "type": "function"
    },
    {
      "inputs": [
        {
          "internalType": "uint256",
          "name": "issueId",
          "type": "uint256"
        },
        {
          "internalType": "address",
          "name": "addr",
          "type": "address"
        }
      ],
      "name": "weightOf",
      "outputs": [
        {
          "internalType": "uint256",
          "name": "weight",
          "type": "uint256"
        }
      ],
      "stateMutability": "view",
      "type": "function"
    },
    {
      "inputs": [
        {
          "internalType": "uint256",
          "name": "",
          "type": "uint256"
        },
        {
          "internalType": "uint256",
          "name": "",
          "type": "uint256"
        }
      ],
      "name": "weightedVoteCounts",
      "outputs": [
        {
          "internalType": "uint256",
          "name": "",
          "type": "uint256"
        }
      ],
      "stateMutability": "view",
      "type": "function"
    },
    {
      "inputs": [
        {
          "internalType": "uint256",
          "name": "issueId",
          "type": "uint256"
        },
        {
          "internalType": "uint256",
          "name": "option",
          "type": "uint256"
        }
      ],
      "name": "weightedVoteCountsOf",
      "outputs": [
        {
          "internalType": "uint256",
          "name": "count",
          "type": "uint256"
        }
      ],
      "stateMutability": "view",
      "type": "function"
    },
    {
      "inputs": [
        {
          "internalType": "uint256",
          "name": "",
          "type": "uint256"
        },
        {
          "internalType": "address",
          "name": "",
          "type": "address"
        }
      ],
      "name": "weights",
      "outputs": [
        {
          "internalType": "uint256",
          "name": "",
          "type": "uint256"
        }
      ],
      "stateMutability": "view",
      "type": "function"
    },
    {
      "inputs": [
        {
          "internalType": "uint256",
          "name": "issueId",
          "type": "uint256"
        }
      ],
      "name": "winningOption",
      "outputs": [
        {
          "internalType": "uint256",
          "name": "option",
          "type": "uint256"
        }
      ],
      "stateMutability": "view",
      "type": "function"
    }
  ],
  "bytecode": "0x60806040523480156200001157600080fd5b506040805180820190915260028152614e6f60f01b6020808301919091526001600052600080516020620011f783398151915290527f79c06e8c99a667adda63c5fa6f05695d29630fc62ad2dd069fa929d5714de89d90620000749082620002c5565b5060408051808201909152600d81526c5965732c20313030206d6f726560981b6020808301919091526002600052600080516020620011f783398151915290527f7e955e967b2c774fdefd0a6f70cfe851a750a8f48fafda490b70fc148e628d0690620000e29082620002c5565b5060408051808201909152600d81526c5965732c20323030206d6f726560981b6020808301919091526003600052600080516020620011f783398151915290527fa2b7d6385dee48a2ead7459b79e810e06dfda3a93433eedcc81fe84786be084e90620001509082620002c5565b506040805180820190915260028152614e6f60f01b60208083019190915260016000526000805160206200121783398151915290527f7fc34355029a161f70aeee0386d9a2fb9a2518cf3f40dfaefce746c3a701bdb790620001b39082620002c5565b5060408051808201909152600381526259657360e81b60208083019190915260026000526000805160206200121783398151915290527fe3676086f4a883dc16130d16abf278f5c150e68c2617fc316cdd91414d82ea7490620002179082620002c5565b5062000391565b634e487b7160e01b600052604160045260246000fd5b600181811c908216806200024957607f821691505b6020821081036200026a57634e487b7160e01b600052602260045260246000fd5b50919050565b601f821115620002c0576000816000526020600020601f850160051c810160208610156200029b5750805b601f850160051c820191505b81811015620002bc57828155600101620002a7565b5050505b505050565b81516001600160401b03811115620002e157620002e16200021e565b620002f981620002f2845462000234565b8462000270565b602080601f831160018114620003315760008415620003185750858301515b600019600386901b1c1916600185901b178555620002bc565b600085815260208120601f198616915b82811015620003625788860151825594840194600190910190840162000341565b5085821015620003815787850151600019600388901b60f8161c191681555b5050505050600190811b01905550565b610e5680620003a16000396000f3fe608060405234801561001057600080fd5b50600436106100f55760003560e01c80637f7bc23a11610097578063b93a4a9f11610066578063b93a4a9f14610278578063c36fff2d1461028b578063ea2bc862146102ab578063f3fd8648146102be57600080fd5b80637f7bc23a146101f15780638719e8ac1461021c5780638935ced51461022f578063b384abef1461026557600080fd5b806332ec991c116100d357806332ec991c146101555780634164c367146101685780635c622a0e146101935780636e6a1dc3146101c657600080fd5b80630dca7ed8146100fa578063157a68df146101205780631e01a17214610135575b600080fd5b61010d6101083660046108ef565b6102e9565b6040519081526020015b60405180910390f35b61013361012e366004610a75565b6103d0565b005b6101486101433660046108ef565b610501565b6040516101179190610b6f565b61010d610163366004610bbe565b6105a3565b61010d610176366004610bbe565b600460209081526000928352604080842090915290825290205481565b6101b66101a13660046108ef565b60009081526003602052604090205460ff1690565b6040519015158152602001610117565b61010d6101d4366004610bea565b600091825260056020908152604080842092845291905290205490565b61010d6101ff366004610bbe565b600660209081526000928352604080842090915290825290205481565b6101b661022a366004610c0c565b6105cd565b61010d61023d366004610bbe565b60009182526004602090815260408084206001600160a01b0393909316845291905290205490565b6101b6610273366004610bea565b61062a565b6101486102863660046108ef565b6106e6565b61029e6102993660046108ef565b610780565b6040516101179190610c41565b6101486102b9366004610bea565b6107e1565b61010d6102cc366004610bea565b600560209081526000928352604080842090915290825290205481565b60008060015b60008481526001602052604090205481101561039c57600084815260016020526040812080548390811061032557610325610c85565b90600052602060002001549050600060016000878152602001908152602001600020848154811061035857610358610c85565b6000918252602080832090910154888352600582526040808420828552808452818520548786529352909220549192501015610392578293505b50506001016102ef565b5060008381526001602052604090208054829081106103bd576103bd610c85565b9060005260206000200154915050919050565b6002835110156103df57600080fd5b600085815260016020908152604090912084516103fe9286019061088f565b506000858152600360205260408120805460ff1916600117905584905b83518110156104df57600084828151811061043857610438610c85565b60209081029190910101516040516370a0823160e01b81526001600160a01b038083166004830152919250908416906370a0823190602401602060405180830381865afa15801561048d573d6000803e3d6000fd5b505050506040513d601f19601f820116820180604052508101906104b19190610c9b565b60008981526004602090815260408083206001600160a01b039095168352939052919091205560010161041b565b5060008681526020819052604090206104f88382610d3f565b50505050505050565b600081815260208190526040902080546060919061051e90610cb4565b80601f016020809104026020016040519081016040528092919081815260200182805461054a90610cb4565b80156105975780601f1061056c57610100808354040283529160200191610597565b820191906000526020600020905b81548152906001019060200180831161057a57829003601f168201915b50505050509050919050565b60008281526006602090815260408083206001600160a01b03851684529091529020545b92915050565b6000828152600360209081526040808320805460ff19168515159081179091558151868152928301527fbe03ebcfeb69534c6616c1e7595185e483f75f4b68dbea40202718e5e6739e9a910160405180910390a150600192915050565b60008281526003602052604081205460ff1661064557600080fd5b6000838152600460209081526040808320338452825280832054868452600583528184208685529092528220805491928392610682908490610dff565b90915550506000848152600660209081526040808320338085529083529281902086905580518781529182018690527f8dbfd85a58723efc11bb6869a671982a65ec9cd32e081f290076566dca6b9be5910160405180910390a25060019392505050565b600060208190529081526040902080546106ff90610cb4565b80601f016020809104026020016040519081016040528092919081815260200182805461072b90610cb4565b80156107785780601f1061074d57610100808354040283529160200191610778565b820191906000526020600020905b81548152906001019060200180831161075b57829003601f168201915b505050505081565b60008181526001602090815260409182902080548351818402810184019094528084526060939283018282801561059757602002820191906000526020600020905b8154815260200190600101908083116107c25750505050509050919050565b6000828152600260209081526040808320848452909152902080546060919061080990610cb4565b80601f016020809104026020016040519081016040528092919081815260200182805461083590610cb4565b80156108825780601f1061085757610100808354040283529160200191610882565b820191906000526020600020905b81548152906001019060200180831161086557829003601f168201915b5050505050905092915050565b8280548282559060005260206000209081019282156108ca579160200282015b828111156108ca5782518255916020019190600101906108af565b506108d69291506108da565b5090565b5b808211156108d657600081556001016108db565b60006020828403121561090157600080fd5b5035919050565b80356001600160a01b038116811461091f57600080fd5b919050565b634e487b7160e01b600052604160045260246000fd5b604051601f8201601f1916810167ffffffffffffffff8111828210171561096357610963610924565b604052919050565b600067ffffffffffffffff82111561098557610985610924565b5060051b60200190565b600082601f8301126109a057600080fd5b813560206109b56109b08361096b565b61093a565b8083825260208201915060208460051b8701019350868411156109d757600080fd5b602086015b848110156109fa576109ed81610908565b83529183019183016109dc565b509695505050505050565b600082601f830112610a1657600080fd5b813567ffffffffffffffff811115610a3057610a30610924565b610a43601f8201601f191660200161093a565b818152846020838601011115610a5857600080fd5b816020850160208301376000918101602001919091529392505050565b600080600080600060a08688031215610a8d57600080fd5b853594506020610a9e818801610908565b9450604087013567ffffffffffffffff80821115610abb57600080fd5b818901915089601f830112610acf57600080fd5b8135610add6109b08261096b565b81815260059190911b8301840190848101908c831115610afc57600080fd5b938501935b82851015610b1a57843582529385019390850190610b01565b975050506060890135925080831115610b3257600080fd5b610b3e8a848b0161098f565b94506080890135925080831115610b5457600080fd5b5050610b6288828901610a05565b9150509295509295909350565b60006020808352835180602085015260005b81811015610b9d57858101830151858201604001528201610b81565b506000604082860101526040601f19601f8301168501019250505092915050565b60008060408385031215610bd157600080fd5b82359150610be160208401610908565b90509250929050565b60008060408385031215610bfd57600080fd5b50508035926020909101359150565b60008060408385031215610c1f57600080fd5b8235915060208301358015158114610c3657600080fd5b809150509250929050565b6020808252825182820181905260009190848201906040850190845b81811015610c7957835183529284019291840191600101610c5d565b50909695505050505050565b634e487b7160e01b600052603260045260246000fd5b600060208284031215610cad57600080fd5b5051919050565b600181811c90821680610cc857607f821691505b602082108103610ce857634e487b7160e01b600052602260045260246000fd5b50919050565b601f821115610d3a576000816000526020600020601f850160051c81016020861015610d175750805b601f850160051c820191505b81811015610d3657828155600101610d23565b5050505b505050565b815167ffffffffffffffff811115610d5957610d59610924565b610d6d81610d678454610cb4565b84610cee565b602080601f831160018114610da25760008415610d8a5750858301515b600019600386901b1c1916600185901b178555610d36565b600085815260208120601f198616915b82811015610dd157888601518255948401946001909101908401610db2565b5085821015610def5787850151600019600388901b60f8161c191681555b5050505050600190811b01905550565b808201808211156105c757634e487b7160e01b600052601160045260246000fdfea2646970667358221220976960c27027b2b9c3508d88d4c346b73dba9224a9a235589545dfed396084c164736f6c63430008160033ac33ff75c19e70fe83507db0d683fd3465c996598dc972688b7ace676c89077be90b7bceb6e7df5418fb78d8ee546e97c83a08bbccc01a0644d599ccd2a7c2e0",
  "linkReferences": {},
  "deployedLinkReferences": {}
}