{
  "_format": "hh-sol-artifact-1",
  "contractName": "AdvancedTokenVote1202",
  "sourceName": "contracts/VoteTokenTest.sol",
  "abi": [
    {
      "inputs": [],
      "stateMutability": "nonpayable",
      "type": "constructor"
    },
    {
      "anonymous": false,
      "inputs": [
        {
          "indexed": false,
          "internalType": "uint256",
          "name": "issueId",
          "type": "uint256"
        },
        {
          "indexed": false,
          "internalType": "bool",
          "name": "newIsOpen",
          "type": "bool"
        }
      ],
      "name": "OnStatusChange",
      "type": "event"
    },
    {
      "anonymous": false,
      "inputs": [
        {
          "indexed": false,
          "internalType": "uint256",
          "name": "issueId",
          "type": "uint256"
        },
        {
          "indexed": true,
          "internalType": "address",
          "name": "_from",
          "type": "address"
        },
        {
          "indexed": false,
          "internalType": "uint256",
          "name": "_value",
          "type": "uint256"
        }
      ],
      "name": "OnVote",
      "type": "event"
    },
    {
      "inputs": [
        {
          "internalType": "uint256",
          "name": "issueId",
          "type": "uint256"
        }
      ],
      "name": "availableOptions",
      "outputs": [
        {
          "internalType": "uint256[]",
          "name": "options_",
          "type": "uint256[]"
        }
      ],
      "stateMutability": "view",
      "type": "function"
    },
    {
      "inputs": [
        {
          "internalType": "uint256",
          "name": "issueId",
          "type": "uint256"
        },
        {
          "internalType": "address",
          "name": "addr",
          "type": "address"
        }
      ],
      "name": "ballotOf",
      "outputs": [
        {
          "internalType": "uint256",
          "name": "option",
          "type": "uint256"
        }
      ],
      "stateMutability": "view",
      "type": "function"
    },
    {
      "inputs": [
        {
          "internalType": "uint256",
          "name": "",
          "type": "uint256"
        },
        {
          "internalType": "address",
          "name": "",
          "type": "address"
        }
      ],
      "name": "ballots",
      "outputs": [
        {
          "internalType": "uint256",
          "name": "",
          "type": "uint256"
        }
      ],
      "stateMutability": "view",
      "type": "function"
    },
    {
      "inputs": [
        {
          "internalType": "uint256",
          "name": "issueId",
          "type": "uint256"
        },
        {
          "internalType": "address",
          "name": "_tokenAddr",
          "type": "address"
        },
        {
          "internalType": "uint256[]",
          "name": "options_",
          "type": "uint256[]"
        },
        {
          "internalType": "address[]",
          "name": "qualifiedVoters_",
          "type": "address[]"
        },
        {
          "internalType": "string",
          "name": "issueDesc_",
          "type": "string"
        }
      ],
      "name": "createIssue",
      "outputs": [],
      "stateMutability": "nonpayable",
      "type": "function"
    },
    {
      "inputs": [
        {
          "internalType": "uint256",
          "name": "issueId",
          "type": "uint256"
        }
      ],
      "name": "getStatus",
      "outputs": [
        {
          "internalType": "bool",
          "name": "isOpen_",
          "type": "bool"
        }
      ],
      "stateMutability": "view",
      "type": "function"
    },
    {
      "inputs": [
        {
          "internalType": "uint256",
          "name": "issueId",
          "type": "uint256"
        }
      ],
      "name": "issueDescription",
      "outputs": [
        {
          "internalType": "string",
          "name": "desc",
          "type": "string"
        }
      ],
      "stateMutability": "view",
      "type": "function"
    },
    {
      "inputs": [
        {
          "internalType": "uint256",
          "name": "",
          "type": "uint256"
        }
      ],
      "name": "issueDescriptions",
      "outputs": [
        {
          "internalType": "string",
          "name": "",
          "type": "string"
        }
      ],
      "stateMutability": "view",
      "type": "function"
    },
    {
      "inputs": [
        {
          "internalType": "uint256",
          "name": "issueId",
          "type": "uint256"
        },
        {
          "internalType": "uint256",
          "name": "option",
          "type": "uint256"
        }
      ],
      "name": "optionDescription",
      "outputs": [
        {
          "internalType": "string",
          "name": "desc",
          "type": "string"
        }
      ],
      "stateMutability": "view",
      "type": "function"
    },
    {
      "inputs": [
        {
          "internalType": "uint256",
          "name": "issueId",
          "type": "uint256"
        },
        {
          "internalType": "bool",
          "name": "isOpen_",
          "type": "bool"
        }
      ],
      "name": "setStatus",
      "outputs": [
        {
          "internalType": "bool",
          "name": "success",
          "type": "bool"
        }
      ],
      "stateMutability": "nonpayable",
      "type": "function"
    },
    {
      "inputs": [
        {
          "internalType": "uint256",
          "name": "issueId",
          "type": "uint256"
        },
        {
          "internalType": "uint256",
          "name": "option",
          "type": "uint256"
        }
      ],
      "name": "vote",
      "outputs": [
        {
          "internalType": "bool",
          "name": "success",
          "type": "bool"
        }
      ],
      "stateMutability": "nonpayable",
      "type": "function"
    },
    {
      "inputs": [
        {
          "internalType": "uint256",
          "name": "issueId",
          "type": "uint256"
        },
        {
          "internalType": "address",
          "name": "addr",
          "type": "address"
        }
      ],
      "name": "weightOf",
      "outputs": [
        {
          "internalType": "uint256",
          "name": "weight",
          "type": "uint256"
        }
      ],
      "stateMutability": "view",
      "type": "function"
    },
    {
      "inputs": [
        {
          "internalType": "uint256",
          "name": "",
          "type": "uint256"
        },
        {
          "internalType": "uint256",
          "name": "",
          "type": "uint256"
        }
      ],
      "name": "weightedVoteCounts",
      "outputs": [
        {
          "internalType": "uint256",
          "name": "",
          "type": "uint256"
        }
      ],
      "stateMutability": "view",
      "type": "function"
    },
    {
      "inputs": [
        {
          "internalType": "uint256",
          "name": "issueId",
          "type": "uint256"
        },
        {
          "internalType": "uint256",
          "name": "option",
          "type": "uint256"
        }
      ],
      "name": "weightedVoteCountsOf",
      "outputs": [
        {
          "internalType": "uint256",
          "name": "count",
          "type": "uint256"
        }
      ],
      "stateMutability": "view",
      "type": "function"
    },
    {
      "inputs": [
        {
          "internalType": "uint256",
          "name": "",
          "type": "uint256"
        },
        {
          "internalType": "address",
          "name": "",
          "type": "address"
        }
      ],
      "name": "weights",
      "outputs": [
        {
          "internalType": "uint256",
          "name": "",
          "type": "uint256"
        }
      ],
      "stateMutability": "view",
      "type": "function"
    },
    {
      "inputs": [
        {
          "internalType": "uint256",
          "name": "issueId",
          "type": "uint256"
        }
      ],
      "name": "winningOption",
      "outputs": [
        {
          "internalType": "uint256",
          "name": "option",
          "type": "uint256"
        }
      ],
      "stateMutability": "view",
      "type": "function"
    }
  ],
  "bytecode": "0x60806040523480156200001157600080fd5b506040518060400160405280600281526020017f4e6f0000000000000000000000000000000000000000000000000000000000008152506002600080815260200190815260200160002060006001815260200190815260200160002090816200007b9190620004a6565b506040518060400160405280600d81526020017f5965732c20313030206d6f726500000000000000000000000000000000000000815250600260008081526020019081526020016000206000600281526020019081526020016000209081620000e59190620004a6565b506040518060400160405280600d81526020017f5965732c20323030206d6f7265000000000000000000000000000000000000008152506002600080815260200190815260200160002060006003815260200190815260200160002090816200014f9190620004a6565b506040518060400160405280600281526020017f4e6f00000000000000000000000000000000000000000000000000000000000081525060026000600181526020019081526020016000206000600181526020019081526020016000209081620001ba9190620004a6565b506040518060400160405280600381526020017f596573000000000000000000000000000000000000000000000000000000000081525060026000600181526020019081526020016000206000600281526020019081526020016000209081620002259190620004a6565b506200058d565b600081519050919050565b7f4e487b7100000000000000000000000000000000000000000000000000000000600052604160045260246000fd5b7f4e487b7100000000000000000000000000000000000000000000000000000000600052602260045260246000fd5b60006002820490506001821680620002ae57607f821691505b602082108103620002c457620002c362000266565b5b50919050565b60008190508160005260206000209050919050565b60006020601f8301049050919050565b600082821b905092915050565b6000600883026200032e7fffffffffffffffffffffffffffffffffffffffffffffffffffffffffffffffff82620002ef565b6200033a8683620002ef565b95508019841693508086168417925050509392505050565b6000819050919050565b6000819050919050565b600062000387620003816200037b8462000352565b6200035c565b62000352565b9050919050565b6000819050919050565b620003a38362000366565b620003bb620003b2826200038e565b848454620002fc565b825550505050565b600090565b620003d2620003c3565b620003df81848462000398565b505050565b5b818110156200040757620003fb600082620003c8565b600181019050620003e5565b5050565b601f82111562000456576200042081620002ca565b6200042b84620002df565b810160208510156200043b578190505b620004536200044a85620002df565b830182620003e4565b50505b505050565b600082821c905092915050565b60006200047b600019846008026200045b565b1980831691505092915050565b600062000496838362000468565b9150826002028217905092915050565b620004b1826200022c565b67ffffffffffffffff811115620004cd57620004cc62000237565b5b620004d9825462000295565b620004e68282856200040b565b600060209050601f8311600181146200051e576000841562000509578287015190505b62000515858262000488565b86555062000585565b601f1984166200052e86620002ca565b60005b82811015620005585784890151825560018201915060208501945060208101905062000531565b8683101562000578578489015162000574601f89168262000468565b8355505b6001600288020188555050505b505050505050565b6118a2806200059d6000396000f3fe608060405234801561001057600080fd5b50600436106100f55760003560e01c80637f7bc23a11610097578063b93a4a9f11610066578063b93a4a9f146102f6578063c36fff2d14610326578063ea2bc86214610356578063f3fd864814610386576100f5565b80637f7bc23a146102365780638719e8ac146102665780638935ced514610296578063b384abef146102c6576100f5565b806332ec991c116100d357806332ec991c146101765780634164c367146101a65780635c622a0e146101d65780636e6a1dc314610206576100f5565b80630dca7ed8146100fa578063157a68df1461012a5780631e01a17214610146575b600080fd5b610114600480360381019061010f9190610cfe565b6103b6565b6040516101219190610d3a565b60405180910390f35b610144600480360381019061013f9190611084565b6104ec565b005b610160600480360381019061015b9190610cfe565b61068a565b60405161016d91906111d2565b60405180910390f35b610190600480360381019061018b91906111f4565b61072e565b60405161019d9190610d3a565b60405180910390f35b6101c060048036038101906101bb91906111f4565b610789565b6040516101cd9190610d3a565b60405180910390f35b6101f060048036038101906101eb9190610cfe565b6107ae565b6040516101fd919061124f565b60405180910390f35b610220600480360381019061021b919061126a565b6107d8565b60405161022d9190610d3a565b60405180910390f35b610250600480360381019061024b91906111f4565b610807565b60405161025d9190610d3a565b60405180910390f35b610280600480360381019061027b91906112d6565b61082c565b60405161028d919061124f565b60405180910390f35b6102b060048036038101906102ab91906111f4565b61089c565b6040516102bd9190610d3a565b60405180910390f35b6102e060048036038101906102db919061126a565b6108f7565b6040516102ed919061124f565b60405180910390f35b610310600480360381019061030b9190610cfe565b610a63565b60405161031d91906111d2565b60405180910390f35b610340600480360381019061033b9190610cfe565b610b03565b60405161034d91906113d4565b60405180910390f35b610370600480360381019061036b919061126a565b610b6e565b60405161037d91906111d2565b60405180910390f35b6103a0600480360381019061039b919061126a565b610c25565b6040516103ad9190610d3a565b60405180910390f35b600080600090506000600190505b60016000858152602001908152602001600020805490508110156104b3576000600160008681526020019081526020016000208281548110610409576104086113f6565b5b90600052602060002001549050600060016000878152602001908152602001600020848154811061043d5761043c6113f6565b5b906000526020600020015490506005600087815260200190815260200160002060008281526020019081526020016000205460056000888152602001908152602001600020600084815260200190815260200160002054111561049e578293505b505080806104ab90611454565b9150506103c4565b506001600084815260200190815260200160002081815481106104d9576104d86113f6565b5b9060005260206000200154915050919050565b6002835110156104fb57600080fd5b82600160008781526020019081526020016000209080519060200190610522929190610c4a565b50600084905060016003600088815260200190815260200160002060006101000a81548160ff02191690831515021790555060005b8351811015610661576000848281518110610575576105746113f6565b5b602002602001015190508273ffffffffffffffffffffffffffffffffffffffff166370a08231826040518263ffffffff1660e01b81526004016105b891906114ab565b602060405180830381865afa1580156105d5573d6000803e3d6000fd5b505050506040513d601f19601f820116820180604052508101906105f991906114db565b600460008a815260200190815260200160002060008373ffffffffffffffffffffffffffffffffffffffff1673ffffffffffffffffffffffffffffffffffffffff1681526020019081526020016000208190555050808061065990611454565b915050610557565b508160008088815260200190815260200160002090816106819190611714565b50505050505050565b606060008083815260200190815260200160002080546106a990611537565b80601f01602080910402602001604051908101604052809291908181526020018280546106d590611537565b80156107225780601f106106f757610100808354040283529160200191610722565b820191906000526020600020905b81548152906001019060200180831161070557829003601f168201915b50505050509050919050565b60006006600084815260200190815260200160002060008373ffffffffffffffffffffffffffffffffffffffff1673ffffffffffffffffffffffffffffffffffffffff16815260200190815260200160002054905092915050565b6004602052816000526040600020602052806000526040600020600091509150505481565b60006003600083815260200190815260200160002060009054906101000a900460ff169050919050565b600060056000848152602001908152602001600020600083815260200190815260200160002054905092915050565b6006602052816000526040600020602052806000526040600020600091509150505481565b6000816003600085815260200190815260200160002060006101000a81548160ff0219169083151502179055507fbe03ebcfeb69534c6616c1e7595185e483f75f4b68dbea40202718e5e6739e9a838360405161088a9291906117e6565b60405180910390a16001905092915050565b60006004600084815260200190815260200160002060008373ffffffffffffffffffffffffffffffffffffffff1673ffffffffffffffffffffffffffffffffffffffff16815260200190815260200160002054905092915050565b60006003600084815260200190815260200160002060009054906101000a900460ff1661092357600080fd5b60006004600085815260200190815260200160002060003373ffffffffffffffffffffffffffffffffffffffff1673ffffffffffffffffffffffffffffffffffffffff1681526020019081526020016000205490508060056000868152602001908152602001600020600085815260200190815260200160002060008282546109ac919061180f565b92505081905550826006600086815260200190815260200160002060003373ffffffffffffffffffffffffffffffffffffffff1673ffffffffffffffffffffffffffffffffffffffff168152602001908152602001600020819055503373ffffffffffffffffffffffffffffffffffffffff167f8dbfd85a58723efc11bb6869a671982a65ec9cd32e081f290076566dca6b9be58585604051610a50929190611843565b60405180910390a2600191505092915050565b60006020528060005260406000206000915090508054610a8290611537565b80601f0160208091040260200160405190810160405280929190818152602001828054610aae90611537565b8015610afb5780601f10610ad057610100808354040283529160200191610afb565b820191906000526020600020905b815481529060010190602001808311610ade57829003601f168201915b505050505081565b606060016000838152602001908152602001600020805480602002602001604051908101604052809291908181526020018280548015610b6257602002820191906000526020600020905b815481526020019060010190808311610b4e575b50505050509050919050565b60606002600084815260200190815260200160002060008381526020019081526020016000208054610b9f90611537565b80601f0160208091040260200160405190810160405280929190818152602001828054610bcb90611537565b8015610c185780601f10610bed57610100808354040283529160200191610c18565b820191906000526020600020905b815481529060010190602001808311610bfb57829003601f168201915b5050505050905092915050565b6005602052816000526040600020602052806000526040600020600091509150505481565b828054828255906000526020600020908101928215610c86579160200282015b82811115610c85578251825591602001919060010190610c6a565b5b509050610c939190610c97565b5090565b5b80821115610cb0576000816000905550600101610c98565b5090565b6000604051905090565b600080fd5b600080fd5b6000819050919050565b610cdb81610cc8565b8114610ce657600080fd5b50565b600081359050610cf881610cd2565b92915050565b600060208284031215610d1457610d13610cbe565b5b6000610d2284828501610ce9565b91505092915050565b610d3481610cc8565b82525050565b6000602082019050610d4f6000830184610d2b565b92915050565b600073ffffffffffffffffffffffffffffffffffffffff82169050919050565b6000610d8082610d55565b9050919050565b610d9081610d75565b8114610d9b57600080fd5b50565b600081359050610dad81610d87565b92915050565b600080fd5b6000601f19601f8301169050919050565b7f4e487b7100000000000000000000000000000000000000000000000000000000600052604160045260246000fd5b610e0182610db8565b810181811067ffffffffffffffff82111715610e2057610e1f610dc9565b5b80604052505050565b6000610e33610cb4565b9050610e3f8282610df8565b919050565b600067ffffffffffffffff821115610e5f57610e5e610dc9565b5b602082029050602081019050919050565b600080fd5b6000610e88610e8384610e44565b610e29565b90508083825260208201905060208402830185811115610eab57610eaa610e70565b5b835b81811015610ed45780610ec08882610ce9565b845260208401935050602081019050610ead565b5050509392505050565b600082601f830112610ef357610ef2610db3565b5b8135610f03848260208601610e75565b91505092915050565b600067ffffffffffffffff821115610f2757610f26610dc9565b5b602082029050602081019050919050565b6000610f4b610f4684610f0c565b610e29565b90508083825260208201905060208402830185811115610f6e57610f6d610e70565b5b835b81811015610f975780610f838882610d9e565b845260208401935050602081019050610f70565b5050509392505050565b600082601f830112610fb657610fb5610db3565b5b8135610fc6848260208601610f38565b91505092915050565b600080fd5b600067ffffffffffffffff821115610fef57610fee610dc9565b5b610ff882610db8565b9050602081019050919050565b82818337600083830152505050565b600061102761102284610fd4565b610e29565b90508281526020810184848401111561104357611042610fcf565b5b61104e848285611005565b509392505050565b600082601f83011261106b5761106a610db3565b5b813561107b848260208601611014565b91505092915050565b600080600080600060a086880312156110a05761109f610cbe565b5b60006110ae88828901610ce9565b95505060206110bf88828901610d9e565b945050604086013567ffffffffffffffff8111156110e0576110df610cc3565b5b6110ec88828901610ede565b935050606086013567ffffffffffffffff81111561110d5761110c610cc3565b5b61111988828901610fa1565b925050608086013567ffffffffffffffff81111561113a57611139610cc3565b5b61114688828901611056565b9150509295509295909350565b600081519050919050565b600082825260208201905092915050565b60005b8381101561118d578082015181840152602081019050611172565b60008484015250505050565b60006111a482611153565b6111ae818561115e565b93506111be81856020860161116f565b6111c781610db8565b840191505092915050565b600060208201905081810360008301526111ec8184611199565b905092915050565b6000806040838503121561120b5761120a610cbe565b5b600061121985828601610ce9565b925050602061122a85828601610d9e565b9150509250929050565b60008115159050919050565b61124981611234565b82525050565b60006020820190506112646000830184611240565b92915050565b6000806040838503121561128157611280610cbe565b5b600061128f85828601610ce9565b92505060206112a085828601610ce9565b9150509250929050565b6112b381611234565b81146112be57600080fd5b50565b6000813590506112d0816112aa565b92915050565b600080604083850312156112ed576112ec610cbe565b5b60006112fb85828601610ce9565b925050602061130c858286016112c1565b9150509250929050565b600081519050919050565b600082825260208201905092915050565b6000819050602082019050919050565b61134b81610cc8565b82525050565b600061135d8383611342565b60208301905092915050565b6000602082019050919050565b600061138182611316565b61138b8185611321565b935061139683611332565b8060005b838110156113c75781516113ae8882611351565b97506113b983611369565b92505060018101905061139a565b5085935050505092915050565b600060208201905081810360008301526113ee8184611376565b905092915050565b7f4e487b7100000000000000000000000000000000000000000000000000000000600052603260045260246000fd5b7f4e487b7100000000000000000000000000000000000000000000000000000000600052601160045260246000fd5b600061145f82610cc8565b91507fffffffffffffffffffffffffffffffffffffffffffffffffffffffffffffffff820361149157611490611425565b5b600182019050919050565b6114a581610d75565b82525050565b60006020820190506114c0600083018461149c565b92915050565b6000815190506114d581610cd2565b92915050565b6000602082840312156114f1576114f0610cbe565b5b60006114ff848285016114c6565b91505092915050565b7f4e487b7100000000000000000000000000000000000000000000000000000000600052602260045260246000fd5b6000600282049050600182168061154f57607f821691505b60208210810361156257611561611508565b5b50919050565b60008190508160005260206000209050919050565b60006020601f8301049050919050565b600082821b905092915050565b6000600883026115ca7fffffffffffffffffffffffffffffffffffffffffffffffffffffffffffffffff8261158d565b6115d4868361158d565b95508019841693508086168417925050509392505050565b6000819050919050565b600061161161160c61160784610cc8565b6115ec565b610cc8565b9050919050565b6000819050919050565b61162b836115f6565b61163f61163782611618565b84845461159a565b825550505050565b600090565b611654611647565b61165f818484611622565b505050565b5b818110156116835761167860008261164c565b600181019050611665565b5050565b601f8211156116c85761169981611568565b6116a28461157d565b810160208510156116b1578190505b6116c56116bd8561157d565b830182611664565b50505b505050565b600082821c905092915050565b60006116eb600019846008026116cd565b1980831691505092915050565b600061170483836116da565b9150826002028217905092915050565b61171d82611153565b67ffffffffffffffff81111561173657611735610dc9565b5b6117408254611537565b61174b828285611687565b600060209050601f83116001811461177e576000841561176c578287015190505b61177685826116f8565b8655506117de565b601f19841661178c86611568565b60005b828110156117b45784890151825560018201915060208501945060208101905061178f565b868310156117d157848901516117cd601f8916826116da565b8355505b6001600288020188555050505b505050505050565b60006040820190506117fb6000830185610d2b565b6118086020830184611240565b9392505050565b600061181a82610cc8565b915061182583610cc8565b925082820190508082111561183d5761183c611425565b5b92915050565b60006040820190506118586000830185610d2b565b6118656020830184610d2b565b939250505056fea264697066735822122032d9ac4cfc12306f5ede446d5f4efe4ed9cf21dcd051ccf97330ebf258dfa70964736f6c63430008130033",
  "linkReferences": {},
  "deployedLinkReferences": {}
}