{
  "_format": "hh-sol-artifact-1",
  "contractName": "DummyErc20",
  "sourceName": "contracts/VoteTokenTest.sol",
  "abi": [
    {
      "inputs": [
        {
          "internalType": "address",
          "name": "",
          "type": "address"
        }
      ],
      "name": "balanceOf",
      "outputs": [
        {
          "internalType": "uint256",
          "name": "",
          "type": "uint256"
        }
      ],
      "stateMutability": "pure",
      "type": "function"
    },
    {
      "inputs": [],
      "name": "decimals",
      "outputs": [
        {
          "internalType": "uint8",
          "name": "",
          "type": "uint8"
        }
      ],
      "stateMutability": "view",
      "type": "function"
    },
    {
      "inputs": [],
      "name": "name",
      "outputs": [
        {
          "internalType": "string",
          "name": "",
          "type": "string"
        }
      ],
      "stateMutability": "view",
      "type": "function"
    },
    {
      "inputs": [],
      "name": "symbol",
      "outputs": [
        {
          "internalType": "string",
          "name": "",
          "type": "string"
        }
      ],
      "stateMutability": "view",
      "type": "function"
    }
  ],
  "bytecode": "0x60806040526040518060400160405280600f81526020017f42617369634572633230546f6b656e0000000000000000000000000000000000815250600090816200004a91906200033c565b506040518060400160405280600381526020017f4245540000000000000000000000000000000000000000000000000000000000815250600190816200009191906200033c565b506000600260006101000a81548160ff021916908360ff160217905550348015620000bb57600080fd5b5062000423565b600081519050919050565b7f4e487b7100000000000000000000000000000000000000000000000000000000600052604160045260246000fd5b7f4e487b7100000000000000000000000000000000000000000000000000000000600052602260045260246000fd5b600060028204905060018216806200014457607f821691505b6020821081036200015a5762000159620000fc565b5b50919050565b60008190508160005260206000209050919050565b60006020601f8301049050919050565b600082821b905092915050565b600060088302620001c47fffffffffffffffffffffffffffffffffffffffffffffffffffffffffffffffff8262000185565b620001d0868362000185565b95508019841693508086168417925050509392505050565b6000819050919050565b6000819050919050565b60006200021d620002176200021184620001e8565b620001f2565b620001e8565b9050919050565b6000819050919050565b6200023983620001fc565b62000251620002488262000224565b84845462000192565b825550505050565b600090565b6200026862000259565b620002758184846200022e565b505050565b5b818110156200029d57620002916000826200025e565b6001810190506200027b565b5050565b601f821115620002ec57620002b68162000160565b620002c18462000175565b81016020851015620002d1578190505b620002e9620002e08562000175565b8301826200027a565b50505b505050565b600082821c905092915050565b60006200031160001984600802620002f1565b1980831691505092915050565b60006200032c8383620002fe565b9150826002028217905092915050565b6200034782620000c2565b67ffffffffffffffff811115620003635762000362620000cd565b5b6200036f82546200012b565b6200037c828285620002a1565b600060209050601f831160018114620003b457600084156200039f578287015190505b620003ab85826200031e565b8655506200041b565b601f198416620003c48662000160565b60005b82811015620003ee57848901518255600182019150602085019450602081019050620003c7565b868310156200040e57848901516200040a601f891682620002fe565b8355505b6001600288020188555050505b505050505050565b61045980620004336000396000f3fe608060405234801561001057600080fd5b506004361061004c5760003560e01c806306fdde0314610051578063313ce5671461006f57806370a082311461008d57806395d89b41146100bd575b600080fd5b6100596100db565b60405161006691906102a6565b60405180910390f35b610077610169565b60405161008491906102e4565b60405180910390f35b6100a760048036038101906100a29190610362565b61017c565b6040516100b491906103a8565b60405180910390f35b6100c5610188565b6040516100d291906102a6565b60405180910390f35b600080546100e8906103f2565b80601f0160208091040260200160405190810160405280929190818152602001828054610114906103f2565b80156101615780601f1061013657610100808354040283529160200191610161565b820191906000526020600020905b81548152906001019060200180831161014457829003601f168201915b505050505081565b600260009054906101000a900460ff1681565b60006101f49050919050565b60018054610195906103f2565b80601f01602080910402602001604051908101604052809291908181526020018280546101c1906103f2565b801561020e5780601f106101e35761010080835404028352916020019161020e565b820191906000526020600020905b8154815290600101906020018083116101f157829003601f168201915b505050505081565b600081519050919050565b600082825260208201905092915050565b60005b83811015610250578082015181840152602081019050610235565b60008484015250505050565b6000601f19601f8301169050919050565b600061027882610216565b6102828185610221565b9350610292818560208601610232565b61029b8161025c565b840191505092915050565b600060208201905081810360008301526102c0818461026d565b905092915050565b600060ff82169050919050565b6102de816102c8565b82525050565b60006020820190506102f960008301846102d5565b92915050565b600080fd5b600073ffffffffffffffffffffffffffffffffffffffff82169050919050565b600061032f82610304565b9050919050565b61033f81610324565b811461034a57600080fd5b50565b60008135905061035c81610336565b92915050565b600060208284031215610378576103776102ff565b5b60006103868482850161034d565b91505092915050565b6000819050919050565b6103a28161038f565b82525050565b60006020820190506103bd6000830184610399565b92915050565b7f4e487b7100000000000000000000000000000000000000000000000000000000600052602260045260246000fd5b6000600282049050600182168061040a57607f821691505b60208210810361041d5761041c6103c3565b5b5091905056fea2646970667358221220d11de356f79955d3677d0fa52ce4e78c4bf15e268e3b6c9e3cbe2c8abfb9769b64736f6c63430008130033",
  "linkReferences": {},
  "deployedLinkReferences": {}
}