{
  "_format": "hh-sol-artifact-1",
  "contractName": "DummyErc20",
  "sourceName": "contracts/VoteTokenTest.sol",
  "abi": [
    {
      "inputs": [
        {
          "internalType": "address",
          "name": "",
          "type": "address"
        }
      ],
      "name": "balanceOf",
      "outputs": [
        {
          "internalType": "uint256",
          "name": "",
          "type": "uint256"
        }
      ],
      "stateMutability": "pure",
      "type": "function"
    },
    {
      "inputs": [],
      "name": "decimals",
      "outputs": [
        {
          "internalType": "uint8",
          "name": "",
          "type": "uint8"
        }
      ],
      "stateMutability": "view",
      "type": "function"
    },
    {
      "inputs": [],
      "name": "name",
      "outputs": [
        {
          "internalType": "string",
          "name": "",
          "type": "string"
        }
      ],
      "stateMutability": "view",
      "type": "function"
    },
    {
      "inputs": [],
      "name": "symbol",
      "outputs": [
        {
          "internalType": "string",
          "name": "",
          "type": "string"
        }
      ],
      "stateMutability": "view",
      "type": "function"
    }
  ],
  "bytecode": "0x60c0604052600f60809081526e2130b9b4b1a2b93199182a37b5b2b760891b60a05260009061002e9082610114565b5060408051808201909152600381526210915560ea1b60208201526001906100569082610114565b506002805460ff1916905534801561006d57600080fd5b506101d3565b634e487b7160e01b600052604160045260246000fd5b600181811c9082168061009d57607f821691505b6020821081036100bd57634e487b7160e01b600052602260045260246000fd5b50919050565b601f82111561010f576000816000526020600020601f850160051c810160208610156100ec5750805b601f850160051c820191505b8181101561010b578281556001016100f8565b5050505b505050565b81516001600160401b0381111561012d5761012d610073565b6101418161013b8454610089565b846100c3565b602080601f831160018114610176576000841561015e5750858301515b600019600386901b1c1916600185901b17855561010b565b600085815260208120601f198616915b828110156101a557888601518255948401946001909101908401610186565b50858210156101c35787850151600019600388901b60f8161c191681555b5050505050600190811b01905550565b610243806101e26000396000f3fe608060405234801561001057600080fd5b506004361061004c5760003560e01c806306fdde0314610051578063313ce5671461006f57806370a082311461008e57806395d89b41146100b1575b600080fd5b6100596100b9565b6040516100669190610154565b60405180910390f35b60025461007c9060ff1681565b60405160ff9091168152602001610066565b6100a361009c3660046101a3565b506101f490565b604051908152602001610066565b610059610147565b600080546100c6906101d3565b80601f01602080910402602001604051908101604052809291908181526020018280546100f2906101d3565b801561013f5780601f106101145761010080835404028352916020019161013f565b820191906000526020600020905b81548152906001019060200180831161012257829003601f168201915b505050505081565b600180546100c6906101d3565b60006020808352835180602085015260005b8181101561018257858101830151858201604001528201610166565b506000604082860101526040601f19601f8301168501019250505092915050565b6000602082840312156101b557600080fd5b81356001600160a01b03811681146101cc57600080fd5b9392505050565b600181811c908216806101e757607f821691505b60208210810361020757634e487b7160e01b600052602260045260246000fd5b5091905056fea2646970667358221220d79a8c35d64b7f2386318b2774b1e377cc49fbfb237415961efa623bb23ccc6564736f6c63430008160033",
  "linkReferences": {},
  "deployedLinkReferences": {}
}