{
  "_format": "hh-sol-artifact-1",
  "contractName": "Create2Factory",
  "sourceName": "contracts/Create2Factory.sol",
  "abi": [
    {
      "inputs": [
        {
          "internalType": "uint256",
          "name": "salt",
          "type": "uint256"
        },
        {
          "internalType": "bytes",
          "name": "initializationCode",
          "type": "bytes"
        }
      ],
      "name": "callCreate2",
      "outputs": [
        {
          "internalType": "address",
          "name": "deploymentAddress",
          "type": "address"
        }
      ],
      "stateMutability": "payable",
      "type": "function"
    }
  ],
  "bytecode": "0x608060405234801561001057600080fd5b506101ec806100206000396000f3fe60806040526004361061001e5760003560e01c806369b09bc414610023575b600080fd5b61003661003136600461013a565b610052565b6040516001600160a01b03909116815260200160405180910390f35b60008083838080601f0160208091040260200160405190810160405280939291908181526020018383808284376000920191909152505082519293503492602085019250905087818385f59450506001600160a01b03841690506101315760405162461bcd60e51b815260206004820152604660248201527f4661696c656420746f206465706c6f7920636f6e7472616374207573696e672060448201527f70726f76696465642073616c7420616e6420696e697469616c697a6174696f6e6064820152651031b7b2329760d11b608482015260a40160405180910390fd5b50509392505050565b60008060006040848603121561014f57600080fd5b83359250602084013567ffffffffffffffff8082111561016e57600080fd5b818601915086601f83011261018257600080fd5b81358181111561019157600080fd5b8760208285010111156101a357600080fd5b602083019450809350505050925092509256fea2646970667358221220056e1b1b5a1b6360becdfb16fb6c2f0976dc6694fa18918d9e7d4916670c07b664736f6c63430008160033",
  "linkReferences": {},
  "deployedLinkReferences": {}
}