{
  "_format": "hh-sol-artifact-1",
  "contractName": "CrossSpaceTraceTestConfluxSide",
  "sourceName": "contracts/origin/CrossSpaceTraceTest.sol",
  "abi": [
    {
      "inputs": [
        {
          "internalType": "bytes20",
          "name": "addr",
          "type": "bytes20"
        },
        {
          "internalType": "uint256",
          "name": "depth",
          "type": "uint256"
        }
      ],
      "name": "callEVM",
      "outputs": [],
      "stateMutability": "nonpayable",
      "type": "function"
    },
    {
      "inputs": [
        {
          "internalType": "bytes20",
          "name": "addr",
          "type": "bytes20"
        },
        {
          "internalType": "uint256",
          "name": "depth",
          "type": "uint256"
        }
      ],
      "name": "callEVMAndSetStorage",
      "outputs": [],
      "stateMutability": "nonpayable",
      "type": "function"
    },
    {
      "inputs": [
        {
          "internalType": "bytes",
          "name": "init",
          "type": "bytes"
        }
      ],
      "name": "createEVM",
      "outputs": [],
      "stateMutability": "nonpayable",
      "type": "function"
    },
    {
      "inputs": [
        {
          "internalType": "bytes20",
          "name": "addr",
          "type": "bytes20"
        }
      ],
      "name": "fail",
      "outputs": [],
      "stateMutability": "nonpayable",
      "type": "function"
    },
    {
      "inputs": [
        {
          "internalType": "bytes20",
          "name": "addr",
          "type": "bytes20"
        },
        {
          "internalType": "uint256",
          "name": "depth",
          "type": "uint256"
        }
      ],
      "name": "staticCallEVM",
      "outputs": [],
      "stateMutability": "view",
      "type": "function"
    },
    {
      "inputs": [
        {
          "internalType": "bytes20",
          "name": "addr",
          "type": "bytes20"
        }
      ],
      "name": "subcallFail",
      "outputs": [],
      "stateMutability": "nonpayable",
      "type": "function"
    },
    {
      "inputs": [
        {
          "internalType": "bytes20",
          "name": "addr",
          "type": "bytes20"
        }
      ],
      "name": "transferEVM",
      "outputs": [],
      "stateMutability": "payable",
      "type": "function"
    },
    {
      "inputs": [
        {
          "internalType": "uint256",
          "name": "value",
          "type": "uint256"
        }
      ],
      "name": "withdrawFromMapped",
      "outputs": [],
      "stateMutability": "nonpayable",
      "type": "function"
    }
  ],
  "bytecode": "0x608060405234801561001057600080fd5b50610a90806100206000396000f3fe60806040526004361061007a5760003560e01c8063b62c0f441161004e578063b62c0f4414610101578063c23ef03114610121578063da8d5daf14610141578063ff3116011461015457600080fd5b8062cfe6d01461007f57806305fbae22146100a157806323e46100146100c157806361063be3146100e1575b600080fd5b34801561008b57600080fd5b5061009f61009a366004610723565b610174565b005b3480156100ad57600080fd5b5061009f6100bc366004610723565b61023a565b3480156100cd57600080fd5b5061009f6100dc36600461074f565b6102fb565b3480156100ed57600080fd5b5061009f6100fc36600461074f565b610397565b34801561010d57600080fd5b5061009f61011c366004610723565b61049d565b34801561012d57600080fd5b5061009f61013c366004610773565b61052f565b61009f61014f36600461074f565b61058b565b34801561016057600080fd5b5061009f61016f36600461078c565b61069a565b600661011160931b016001600160a01b031663bea05ee3838360405160240161019f91815260200190565b60408051601f198184030181529181526020820180516001600160e01b0316631584b49360e11b179052516001600160e01b031960e085901b1681526101e9929190600401610822565b6000604051808303816000875af1158015610208573d6000803e3d6000fd5b505050506040513d6000823e601f3d908101601f1916820160405261023091908101906108ae565b5060016000555050565b600661011160931b016001600160a01b031663bea05ee3838360405160240161026591815260200190565b60408051601f198184030181529181526020820180516001600160e01b0316631584b49360e11b179052516001600160e01b031960e085901b1681526102af929190600401610822565b6000604051808303816000875af11580156102ce573d6000803e3d6000fd5b505050506040513d6000823e601f3d908101601f191682016040526102f691908101906108ae565b505050565b6040805160048082526024820183526020820180516001600160e01b031663153988e360e31b179052915163bea05ee360e01b8152600661011160931b019263bea05ee39261034c92869201610822565b6000604051808303816000875af115801561036b573d6000803e3d6000fd5b505050506040513d6000823e601f3d908101601f1916820160405261039391908101906108ae565b5050565b6040805160048082526024820183526020820180516001600160e01b031663153988e360e31b179052915163bea05ee360e01b8152600661011160931b019263bea05ee3926103e892869201610822565b6000604051808303816000875af192505050801561042857506040513d6000823e601f3d908101601f1916820160405261042591908101906108ae565b60015b61045f57610434610946565b806308c379a0036104535750610448610962565b806103935750610455565b505b3d6000803e3d6000fd5b5060405162461bcd60e51b815260206004820152600b60248201526a14da1bdd5b190819985a5b60aa1b604482015260640160405180910390fd5b50565b600661011160931b016001600160a01b03166330b4ef7d83836040516024016104c891815260200190565b60408051601f198184030181529181526020820180516001600160e01b0316631584b49360e11b179052516001600160e01b031960e085901b168152610512929190600401610822565b600060405180830381865afa1580156102ce573d6000803e3d6000fd5b60405163c23ef03160e01b815260048101829052600661011160931b019063c23ef03190602401600060405180830381600087803b15801561057057600080fd5b505af1158015610584573d6000803e3d6000fd5b5050505050565b600661011160931b0163da8d5daf6105a46002346109ec565b6040516001600160e01b031960e084901b1681526001600160601b03198516600482015260240160006040518083038185885af11580156105e9573d6000803e3d6000fd5b50505050506040513d6000823e601f3d908101601f1916820160405261061291908101906108ae565b50600661011160931b0163da8d5daf61062c6002346109ec565b6040516001600160e01b031960e084901b1681526001600160601b03198516600482015260240160006040518083038185885af1158015610671573d6000803e3d6000fd5b50505050506040513d6000823e601f3d908101601f1916820160405261039391908101906108ae565b604051600162cee9ff60e01b03198152600661011160931b019063ff311601906106ca9085908590600401610a0e565b6020604051808303816000875af11580156106e9573d6000803e3d6000fd5b505050506040513d601f19601f820116820180604052508101906102f69190610a3d565b6001600160601b03198116811461049a57600080fd5b6000806040838503121561073657600080fd5b82356107418161070d565b946020939093013593505050565b60006020828403121561076157600080fd5b813561076c8161070d565b9392505050565b60006020828403121561078557600080fd5b5035919050565b6000806020838503121561079f57600080fd5b823567ffffffffffffffff808211156107b757600080fd5b818501915085601f8301126107cb57600080fd5b8135818111156107da57600080fd5b8660208285010111156107ec57600080fd5b60209290920196919550909350505050565b60005b83811015610819578181015183820152602001610801565b50506000910152565b6bffffffffffffffffffffffff198316815260406020820152600082518060408401526108568160608501602087016107fe565b601f01601f1916919091016060019392505050565b634e487b7160e01b600052604160045260246000fd5b601f8201601f1916810167ffffffffffffffff811182821017156108a7576108a761086b565b6040525050565b6000602082840312156108c057600080fd5b815167ffffffffffffffff808211156108d857600080fd5b818401915084601f8301126108ec57600080fd5b8151818111156108fe576108fe61086b565b6040519150610917601f8201601f191660200183610881565b80825285602082850101111561092c57600080fd5b61093d8160208401602086016107fe565b50949350505050565b600060033d111561095f5760046000803e5060005160e01c5b90565b600060443d10156109705790565b6040516003193d81016004833e81513d67ffffffffffffffff81602484011181841117156109a057505050505090565b82850191508151818111156109b85750505050505090565b843d87010160208285010111156109d25750505050505090565b6109e160208286010187610881565b509095945050505050565b600082610a0957634e487b7160e01b600052601260045260246000fd5b500490565b60208152816020820152818360408301376000818301604090810191909152601f909201601f19160101919050565b600060208284031215610a4f57600080fd5b815161076c8161070d56fea26469706673582212201d4fcafd84c20fa7cadbcb733910c0880a80e0c713d04d53242850dddc2ed10864736f6c63430008160033",
  "linkReferences": {},
  "deployedLinkReferences": {}
}