{
  "_format": "hh-sol-artifact-1",
  "contractName": "CrossSpaceTraceTestEVMSide",
  "sourceName": "contracts/origin/CrossSpaceTraceTest.sol",
  "abi": [
    {
      "inputs": [
        {
          "internalType": "uint256",
          "name": "depth",
          "type": "uint256"
        }
      ],
      "name": "call",
      "outputs": [
        {
          "internalType": "uint256",
          "name": "",
          "type": "uint256"
        }
      ],
      "stateMutability": "nonpayable",
      "type": "function"
    },
    {
      "inputs": [],
      "name": "fail",
      "outputs": [],
      "stateMutability": "pure",
      "type": "function"
    }
  ],
  "bytecode": "0x608060405234801561001057600080fd5b506101b9806100206000396000f3fe608060405234801561001057600080fd5b50600436106100365760003560e01c80632b0969261461003b578063a9cc471814610060575b600080fd5b61004e61004936600461012a565b61006a565b60405190815260200160405180910390f35b6100686100f5565b005b60008160000361007c57506000919050565b30632b09692661008d600185610143565b6040518263ffffffff1660e01b81526004016100ab91815260200190565b6020604051808303816000875af11580156100ca573d6000803e3d6000fd5b505050506040513d601f19601f820116820180604052508101906100ee919061016a565b5090919050565b60405162461bcd60e51b81526020600482015260066024820152654f68206e6f2160d01b604482015260640160405180910390fd5b60006020828403121561013c57600080fd5b5035919050565b8181038181111561016457634e487b7160e01b600052601160045260246000fd5b92915050565b60006020828403121561017c57600080fd5b505191905056fea2646970667358221220fc30afb41e70bbcb2a2d495ed67393dbb0c201a1bf1d1849966b062e0fd8dcf564736f6c63430008160033",
  "linkReferences": {},
  "deployedLinkReferences": {}
}