{
  "_format": "hh-sol-artifact-1",
  "contractName": "CrossSpaceTraceTestConfluxSide",
  "sourceName": "contracts/origin/CrossSpaceTraceTest.sol",
  "abi": [
    {
      "inputs": [
        {
          "internalType": "bytes20",
          "name": "addr",
          "type": "bytes20"
        },
        {
          "internalType": "uint256",
          "name": "depth",
          "type": "uint256"
        }
      ],
      "name": "callEVM",
      "outputs": [],
      "stateMutability": "nonpayable",
      "type": "function"
    },
    {
      "inputs": [
        {
          "internalType": "bytes20",
          "name": "addr",
          "type": "bytes20"
        },
        {
          "internalType": "uint256",
          "name": "depth",
          "type": "uint256"
        }
      ],
      "name": "callEVMAndSetStorage",
      "outputs": [],
      "stateMutability": "nonpayable",
      "type": "function"
    },
    {
      "inputs": [
        {
          "internalType": "bytes20",
          "name": "addr",
          "type": "bytes20"
        }
      ],
      "name": "callEVMEmpty",
      "outputs": [],
      "stateMutability": "nonpayable",
      "type": "function"
    },
    {
      "inputs": [
        {
          "internalType": "bytes",
          "name": "init",
          "type": "bytes"
        }
      ],
      "name": "createEVM",
      "outputs": [],
      "stateMutability": "nonpayable",
      "type": "function"
    },
    {
      "inputs": [
        {
          "internalType": "bytes20",
          "name": "addr",
          "type": "bytes20"
        }
      ],
      "name": "fail",
      "outputs": [],
      "stateMutability": "nonpayable",
      "type": "function"
    },
    {
      "inputs": [
        {
          "internalType": "bytes20",
          "name": "addr",
          "type": "bytes20"
        },
        {
          "internalType": "uint256",
          "name": "depth",
          "type": "uint256"
        }
      ],
      "name": "staticCallEVM",
      "outputs": [],
      "stateMutability": "view",
      "type": "function"
    },
    {
      "inputs": [
        {
          "internalType": "bytes20",
          "name": "addr",
          "type": "bytes20"
        }
      ],
      "name": "subcallFail",
      "outputs": [],
      "stateMutability": "nonpayable",
      "type": "function"
    },
    {
      "inputs": [
        {
          "internalType": "bytes20",
          "name": "addr",
          "type": "bytes20"
        }
      ],
      "name": "transferEVM",
      "outputs": [],
      "stateMutability": "payable",
      "type": "function"
    },
    {
      "inputs": [
        {
          "internalType": "uint256",
          "name": "value",
          "type": "uint256"
        }
      ],
      "name": "withdrawFromMapped",
      "outputs": [],
      "stateMutability": "nonpayable",
      "type": "function"
    }
  ],
  "bytecode": "0x608060405234801561001057600080fd5b50610b0c806100206000396000f3fe6080604052600436106100855760003560e01c8063b62c0f4411610059578063b62c0f441461010c578063c23ef0311461012c578063da8d5daf1461014c578063f27280271461015f578063ff3116011461017f57600080fd5b8062cfe6d01461008a57806305fbae22146100ac57806323e46100146100cc57806361063be3146100ec575b600080fd5b34801561009657600080fd5b506100aa6100a536600461079f565b61019f565b005b3480156100b857600080fd5b506100aa6100c736600461079f565b610265565b3480156100d857600080fd5b506100aa6100e73660046107cb565b610326565b3480156100f857600080fd5b506100aa6101073660046107cb565b6103c2565b34801561011857600080fd5b506100aa61012736600461079f565b6104c8565b34801561013857600080fd5b506100aa6101473660046107ef565b61055a565b6100aa61015a3660046107cb565b6105b6565b34801561016b57600080fd5b506100aa61017a3660046107cb565b6106c5565b34801561018b57600080fd5b506100aa61019a366004610808565b610716565b600661011160931b016001600160a01b031663bea05ee383836040516024016101ca91815260200190565b60408051601f198184030181529181526020820180516001600160e01b0316631584b49360e11b179052516001600160e01b031960e085901b16815261021492919060040161089e565b6000604051808303816000875af1158015610233573d6000803e3d6000fd5b505050506040513d6000823e601f3d908101601f1916820160405261025b919081019061092a565b5060016000555050565b600661011160931b016001600160a01b031663bea05ee3838360405160240161029091815260200190565b60408051601f198184030181529181526020820180516001600160e01b0316631584b49360e11b179052516001600160e01b031960e085901b1681526102da92919060040161089e565b6000604051808303816000875af11580156102f9573d6000803e3d6000fd5b505050506040513d6000823e601f3d908101601f19168201604052610321919081019061092a565b505050565b6040805160048082526024820183526020820180516001600160e01b031663153988e360e31b179052915163bea05ee360e01b8152600661011160931b019263bea05ee3926103779286920161089e565b6000604051808303816000875af1158015610396573d6000803e3d6000fd5b505050506040513d6000823e601f3d908101601f191682016040526103be919081019061092a565b5050565b6040805160048082526024820183526020820180516001600160e01b031663153988e360e31b179052915163bea05ee360e01b8152600661011160931b019263bea05ee3926104139286920161089e565b6000604051808303816000875af192505050801561045357506040513d6000823e601f3d908101601f19168201604052610450919081019061092a565b60015b61048a5761045f6109c2565b806308c379a00361047e57506104736109de565b806103be5750610480565b505b3d6000803e3d6000fd5b5060405162461bcd60e51b815260206004820152600b60248201526a14da1bdd5b190819985a5b60aa1b604482015260640160405180910390fd5b50565b600661011160931b016001600160a01b03166330b4ef7d83836040516024016104f391815260200190565b60408051601f198184030181529181526020820180516001600160e01b0316631584b49360e11b179052516001600160e01b031960e085901b16815261053d92919060040161089e565b600060405180830381865afa1580156102f9573d6000803e3d6000fd5b60405163c23ef03160e01b815260048101829052600661011160931b019063c23ef03190602401600060405180830381600087803b15801561059b57600080fd5b505af11580156105af573d6000803e3d6000fd5b5050505050565b600661011160931b0163da8d5daf6105cf600234610a68565b6040516001600160e01b031960e084901b1681526001600160601b03198516600482015260240160006040518083038185885af1158015610614573d6000803e3d6000fd5b50505050506040513d6000823e601f3d908101601f1916820160405261063d919081019061092a565b50600661011160931b0163da8d5daf610657600234610a68565b6040516001600160e01b031960e084901b1681526001600160601b03198516600482015260240160006040518083038185885af115801561069c573d6000803e3d6000fd5b50505050506040513d6000823e601f3d908101601f191682016040526103be919081019061092a565b6040805160048082526024820183526020820180516001600160e01b0316639a5f949f60e01b179052915163bea05ee360e01b8152600661011160931b019263bea05ee3926103779286920161089e565b604051600162cee9ff60e01b03198152600661011160931b019063ff311601906107469085908590600401610a8a565b6020604051808303816000875af1158015610765573d6000803e3d6000fd5b505050506040513d601f19601f820116820180604052508101906103219190610ab9565b6001600160601b0319811681146104c557600080fd5b600080604083850312156107b257600080fd5b82356107bd81610789565b946020939093013593505050565b6000602082840312156107dd57600080fd5b81356107e881610789565b9392505050565b60006020828403121561080157600080fd5b5035919050565b6000806020838503121561081b57600080fd5b823567ffffffffffffffff8082111561083357600080fd5b818501915085601f83011261084757600080fd5b81358181111561085657600080fd5b86602082850101111561086857600080fd5b60209290920196919550909350505050565b60005b8381101561089557818101518382015260200161087d565b50506000910152565b6bffffffffffffffffffffffff198316815260406020820152600082518060408401526108d281606085016020870161087a565b601f01601f1916919091016060019392505050565b634e487b7160e01b600052604160045260246000fd5b601f8201601f1916810167ffffffffffffffff81118282101715610923576109236108e7565b6040525050565b60006020828403121561093c57600080fd5b815167ffffffffffffffff8082111561095457600080fd5b818401915084601f83011261096857600080fd5b81518181111561097a5761097a6108e7565b6040519150610993601f8201601f1916602001836108fd565b8082528560208285010111156109a857600080fd5b6109b981602084016020860161087a565b50949350505050565b600060033d11156109db5760046000803e5060005160e01c5b90565b600060443d10156109ec5790565b6040516003193d81016004833e81513d67ffffffffffffffff8160248401118184111715610a1c57505050505090565b8285019150815181811115610a345750505050505090565b843d8701016020828501011115610a4e5750505050505090565b610a5d602082860101876108fd565b509095945050505050565b600082610a8557634e487b7160e01b600052601260045260246000fd5b500490565b60208152816020820152818360408301376000818301604090810191909152601f909201601f19160101919050565b600060208284031215610acb57600080fd5b81516107e88161078956fea2646970667358221220b50d1ae3d04739e4d7500e51824847a92b4071b832f5ba1c2f66356107ef9e9964736f6c63430008160033",
  "linkReferences": {},
  "deployedLinkReferences": {}
}