{
  "_format": "hh-sol-artifact-1",
  "contractName": "CrossSpaceTraceTestEVMSide",
  "sourceName": "contracts/origin/CrossSpaceTraceTest.sol",
  "abi": [
    {
      "inputs": [
        {
          "internalType": "uint256",
          "name": "depth",
          "type": "uint256"
        }
      ],
      "name": "call",
      "outputs": [
        {
          "internalType": "uint256",
          "name": "",
          "type": "uint256"
        }
      ],
      "stateMutability": "nonpayable",
      "type": "function"
    },
    {
      "inputs": [],
      "name": "callEmpty",
      "outputs": [],
      "stateMutability": "nonpayable",
      "type": "function"
    },
    {
      "inputs": [],
      "name": "fail",
      "outputs": [],
      "stateMutability": "pure",
      "type": "function"
    }
  ],
  "bytecode": "0x608060405234801561001057600080fd5b506101c4806100206000396000f3fe608060405234801561001057600080fd5b50600436106100415760003560e01c80632b096926146100465780639a5f949f1461006b578063a9cc47181461006d575b600080fd5b610059610054366004610135565b610075565b60405190815260200160405180910390f35b005b61006b610100565b60008160000361008757506000919050565b30632b09692661009860018561014e565b6040518263ffffffff1660e01b81526004016100b691815260200190565b6020604051808303816000875af11580156100d5573d6000803e3d6000fd5b505050506040513d601f19601f820116820180604052508101906100f99190610175565b5090919050565b60405162461bcd60e51b81526020600482015260066024820152654f68206e6f2160d01b604482015260640160405180910390fd5b60006020828403121561014757600080fd5b5035919050565b8181038181111561016f57634e487b7160e01b600052601160045260246000fd5b92915050565b60006020828403121561018757600080fd5b505191905056fea2646970667358221220f8494dd56fde5b35fa9823f1b12bdfaf4e10084c45f2531d4677aa522025d2a264736f6c63430008160033",
  "linkReferences": {},
  "deployedLinkReferences": {}
}