{
  "_format": "hh-sol-artifact-1",
  "contractName": "CallTools",
  "sourceName": "contracts/CallTools.sol",
  "abi": [
    {
      "inputs": [
        {
          "internalType": "address",
          "name": "receiver",
          "type": "address"
        },
        {
          "internalType": "bytes",
          "name": "data",
          "type": "bytes"
        },
        {
          "internalType": "uint8",
          "name": "returnFlag",
          "type": "uint8"
        }
      ],
      "name": "callAnother",
      "outputs": [],
      "stateMutability": "nonpayable",
      "type": "function"
    },
    {
      "inputs": [],
      "name": "fail",
      "outputs": [],
      "stateMutability": "pure",
      "type": "function"
    },
    {
      "inputs": [
        {
          "internalType": "bytes[]",
          "name": "callTasks",
          "type": "bytes[]"
        }
      ],
      "name": "multiCall",
      "outputs": [],
      "stateMutability": "nonpayable",
      "type": "function"
    },
    {
      "inputs": [
        {
          "internalType": "bytes[]",
          "name": "callTasks",
          "type": "bytes[]"
        },
        {
          "internalType": "address[]",
          "name": "receiver",
          "type": "address[]"
        }
      ],
      "name": "multiCallExternal",
      "outputs": [],
      "stateMutability": "nonpayable",
      "type": "function"
    },
    {
      "inputs": [
        {
          "internalType": "bytes[]",
          "name": "callTasks",
          "type": "bytes[]"
        },
        {
          "internalType": "address[]",
          "name": "receiver",
          "type": "address[]"
        },
        {
          "internalType": "uint8[]",
          "name": "returnFlags",
          "type": "uint8[]"
        }
      ],
      "name": "multiCallExternalWithFlag",
      "outputs": [],
      "stateMutability": "nonpayable",
      "type": "function"
    },
    {
      "inputs": [
        {
          "internalType": "bytes[]",
          "name": "callTasks",
          "type": "bytes[]"
        },
        {
          "internalType": "uint8[]",
          "name": "returnFlags",
          "type": "uint8[]"
        }
      ],
      "name": "multiCallWithFlag",
      "outputs": [],
      "stateMutability": "nonpayable",
      "type": "function"
    },
    {
      "inputs": [
        {
          "internalType": "bytes",
          "name": "data",
          "type": "bytes"
        },
        {
          "internalType": "uint256",
          "name": "restLevel",
          "type": "uint256"
        },
        {
          "internalType": "uint8[]",
          "name": "returnFlags",
          "type": "uint8[]"
        }
      ],
      "name": "recursiveCall",
      "outputs": [],
      "stateMutability": "nonpayable",
      "type": "function"
    },
    {
      "inputs": [
        {
          "internalType": "address payable",
          "name": "addr",
          "type": "address"
        }
      ],
      "name": "selfDestruct",
      "outputs": [],
      "stateMutability": "nonpayable",
      "type": "function"
    },
    {
      "inputs": [],
      "name": "selfRevert",
      "outputs": [],
      "stateMutability": "pure",
      "type": "function"
    }
  ],
  "bytecode": "0x608060405234801561001057600080fd5b50610de4806100206000396000f3fe608060405234801561001057600080fd5b50600436106100935760003560e01c80633f5a0bdd116100665780633f5a0bdd146100e6578063653efc07146100f957806372a36f1f1461010c578063824b9e3214610114578063a9cc47181461012757600080fd5b80630719706d146100985780631fbf703b146100ad578063348a0cdc146100c05780633e8eb32b146100d3575b600080fd5b6100ab6100a6366004610991565b61012c565b005b6100ab6100bb366004610a74565b6101ed565b6100ab6100ce366004610afb565b61032f565b6100ab6100e1366004610b37565b6103bf565b6100ab6100f4366004610b8c565b6104d9565b6100ab610107366004610bb0565b6104e5565b6100ab600080fd5b6100ab610122366004610c09565b610593565b6100abfe5b80518251146101565760405162461bcd60e51b815260040161014d90610c68565b60405180910390fd5b600082516001600160401b03811115610171576101716107ae565b60405190808252806020026020018201604052801561019a578160200160208202803683370190505b50905060005b83518110156101dc57308282815181106101bc576101bc610cab565b6001600160a01b03909216602092830291909101909101526001016101a0565b506101e88382846101ed565b505050565b805183511461020e5760405162461bcd60e51b815260040161014d90610c68565b815183511461025f5760405162461bcd60e51b815260206004820152601f60248201527f496e636f6e73697374656e74206c656e677468206f6620726563656976657200604482015260640161014d565b60005b835181101561032957600083828151811061027f5761027f610cab565b60200260200101516001600160a01b03168583815181106102a2576102a2610cab565b60200260200101516040516102b79190610ce5565b6000604051808303816000865af19150503d80600081146102f4576040519150601f19603f3d011682016040523d82523d6000602084013e6102f9565b606091505b505090506103208184848151811061031357610313610cab565b6020026020010151610690565b50600101610262565b50505050565b600081516001600160401b0381111561034a5761034a6107ae565b604051908082528060200260200182016040528015610373578160200160208202803683370190505b50905060005b82518110156103b057600082828151811061039657610396610cab565b60ff90921660209283029190910190910152600101610379565b506103bb828261012c565b5050565b60006001831061046b5730846103d6600186610d01565b846040516024016103e993929190610d28565b60408051601f198184030181529181526020820180516001600160e01b0316631732ec5160e01b1790525161041e9190610ce5565b6000604051808303816000865af19150503d806000811461045b576040519150601f19603f3d011682016040523d82523d6000602084013e610460565b606091505b5050809150506104c3565b604051309061047b908690610ce5565b6000604051808303816000865af19150503d80600081146104b8576040519150601f19603f3d011682016040523d82523d6000602084013e6104bd565b606091505b50909150505b6103298183858151811061031357610313610cab565b806001600160a01b0316ff5b80518251146105065760405162461bcd60e51b815260040161014d90610c68565b600082516001600160401b03811115610521576105216107ae565b60405190808252806020026020018201604052801561054a578160200160208202803683370190505b50905060005b835181101561058757600082828151811061056d5761056d610cab565b60ff90921660209283029190910190910152600101610550565b506101e88383836101ed565b604080516001808252818301909252600091816020015b60608152602001906001900390816105aa57905050905082816000815181106105d5576105d5610cab565b6020908102919091010152604080516001808252818301909252600091816020016020820280368337019050509050848160008151811061061857610618610cab565b6001600160a01b039290921660209283029190910190910152604080516001808252818301909252600091816020016020820280368337019050509050838160008151811061066957610669610cab565b602002602001019060ff16908160ff16815250506106888383836101ed565b505050505050565b816106fc578060ff166003036106a4575050565b8060ff166000036106f75760405162461bcd60e51b815260206004820181905260248201527f5265766572742062656361757365206f6620657865637574696f6e206661696c604482015260640161014d565b61075b565b8060ff1660020361075b5760405162461bcd60e51b8152602060048201526024808201527f5265766572742062656361757365206f6620756e6578706563746564207375636044820152636365737360e01b606482015260840161014d565b8060ff166004036103bb5760405162461bcd60e51b815260206004820152601d60248201527f5265766572742062656361757365206f662072657475726e20666c6167000000604482015260640161014d565b634e487b7160e01b600052604160045260246000fd5b604051601f8201601f191681016001600160401b03811182821017156107ec576107ec6107ae565b604052919050565b60006001600160401b0382111561080d5761080d6107ae565b5060051b60200190565b600082601f83011261082857600080fd5b81356001600160401b03811115610841576108416107ae565b610854601f8201601f19166020016107c4565b81815284602083860101111561086957600080fd5b816020850160208301376000918101602001919091529392505050565b600082601f83011261089757600080fd5b813560206108ac6108a7836107f4565b6107c4565b82815260059290921b840181019181810190868411156108cb57600080fd5b8286015b8481101561090a5780356001600160401b038111156108ee5760008081fd5b6108fc8986838b0101610817565b8452509183019183016108cf565b509695505050505050565b803560ff8116811461092657600080fd5b919050565b600082601f83011261093c57600080fd5b8135602061094c6108a7836107f4565b8083825260208201915060208460051b87010193508684111561096e57600080fd5b602086015b8481101561090a5761098481610915565b8352918301918301610973565b600080604083850312156109a457600080fd5b82356001600160401b03808211156109bb57600080fd5b6109c786838701610886565b935060208501359150808211156109dd57600080fd5b506109ea8582860161092b565b9150509250929050565b6001600160a01b0381168114610a0957600080fd5b50565b600082601f830112610a1d57600080fd5b81356020610a2d6108a7836107f4565b8083825260208201915060208460051b870101935086841115610a4f57600080fd5b602086015b8481101561090a578035610a67816109f4565b8352918301918301610a54565b600080600060608486031215610a8957600080fd5b83356001600160401b0380821115610aa057600080fd5b610aac87838801610886565b94506020860135915080821115610ac257600080fd5b610ace87838801610a0c565b93506040860135915080821115610ae457600080fd5b50610af18682870161092b565b9150509250925092565b600060208284031215610b0d57600080fd5b81356001600160401b03811115610b2357600080fd5b610b2f84828501610886565b949350505050565b600080600060608486031215610b4c57600080fd5b83356001600160401b0380821115610b6357600080fd5b610b6f87838801610817565b9450602086013593506040860135915080821115610ae457600080fd5b600060208284031215610b9e57600080fd5b8135610ba9816109f4565b9392505050565b60008060408385031215610bc357600080fd5b82356001600160401b0380821115610bda57600080fd5b610be686838701610886565b93506020850135915080821115610bfc57600080fd5b506109ea85828601610a0c565b600080600060608486031215610c1e57600080fd5b8335610c29816109f4565b925060208401356001600160401b03811115610c4457600080fd5b610c5086828701610817565b925050610c5f60408501610915565b90509250925092565b60208082526023908201527f496e636f6e73697374656e74206c656e677468206f662072657475726e20666c60408201526261677360e81b606082015260800190565b634e487b7160e01b600052603260045260246000fd5b60005b83811015610cdc578181015183820152602001610cc4565b50506000910152565b60008251610cf7818460208701610cc1565b9190910192915050565b81810381811115610d2257634e487b7160e01b600052601160045260246000fd5b92915050565b60608152600084518060608401526020610d49826080860160208a01610cc1565b6020808501879052601f92909201601f191684018481036080908101604087015286519082018190529286019260009160a001905b80831015610da157845160ff168252938301936001929092019190830190610d7e565b509897505050505050505056fea264697066735822122041a802058cc42655c77d245601696120f6365040a9e302a2a739ea0b5b9a8c1164736f6c63430008160033",
  "linkReferences": {},
  "deployedLinkReferences": {}
}