{
  "_format": "hh-sol-artifact-1",
  "contractName": "CallTools",
  "sourceName": "contracts/CallTools.sol",
  "abi": [
    {
      "inputs": [
        {
          "internalType": "bytes[]",
          "name": "callTasks",
          "type": "bytes[]"
        },
        {
          "internalType": "uint8[]",
          "name": "returnFlags",
          "type": "uint8[]"
        }
      ],
      "name": "multiCall",
      "outputs": [],
      "stateMutability": "nonpayable",
      "type": "function"
    },
    {
      "inputs": [
        {
          "internalType": "bytes",
          "name": "data",
          "type": "bytes"
        },
        {
          "internalType": "uint256",
          "name": "restLevel",
          "type": "uint256"
        },
        {
          "internalType": "uint256",
          "name": "successBits",
          "type": "uint256"
        }
      ],
      "name": "recursiveCall",
      "outputs": [],
      "stateMutability": "nonpayable",
      "type": "function"
    }
  ],
  "bytecode": "0x608060405234801561001057600080fd5b50610676806100206000396000f3fe608060405234801561001057600080fd5b50600436106100365760003560e01c80631732ec511461003b5780638d6c4eb014610050575b600080fd5b61004e61004936600461037d565b610063565b005b61004e61005e36600461046a565b610186565b60006001831061012857308461007a600186610554565b61008560028661056d565b604051602401610097939291906105b3565b60408051601f198184030181529181526020820180516001600160e01b0316631732ec5160e01b179052516100cc91906105f5565b6000604051808303816000865af19150503d8060008114610109576040519150601f19603f3d011682016040523d82523d6000602084013e61010e565b606091505b50909150506001821660000361012357600080fd5b610180565b60405130906101389086906105f5565b6000604051808303816000865af19150503d8060008114610175576040519150601f19603f3d011682016040523d82523d6000602084013e61017a565b606091505b50909150505b50505050565b80518251146101d15760405162461bcd60e51b8152602060048201526013602482015272092dcc6dedce6d2e6e8cadce840d8cadccee8d606b1b604482015260640160405180910390fd5b60005b82518110156102c1576000306001600160a01b03168483815181106101fb576101fb610611565b602002602001015160405161021091906105f5565b6000604051808303816000865af19150503d806000811461024d576040519150601f19603f3d011682016040523d82523d6000602084013e610252565b606091505b5050905060008360008151811061026b5761026b610611565b602002602001015190508060ff1660020361028557600080fd5b816102ac578060ff1660030361029c575050505050565b8060ff166000036102ac57600080fd5b505080806102b990610627565b9150506101d4565b505050565b634e487b7160e01b600052604160045260246000fd5b604051601f8201601f1916810167ffffffffffffffff81118282101715610305576103056102c6565b604052919050565b600082601f83011261031e57600080fd5b813567ffffffffffffffff811115610338576103386102c6565b61034b601f8201601f19166020016102dc565b81815284602083860101111561036057600080fd5b816020850160208301376000918101602001919091529392505050565b60008060006060848603121561039257600080fd5b833567ffffffffffffffff8111156103a957600080fd5b6103b58682870161030d565b9660208601359650604090950135949350505050565b600067ffffffffffffffff8211156103e5576103e56102c6565b5060051b60200190565b600082601f83011261040057600080fd5b81356020610415610410836103cb565b6102dc565b82815260059290921b8401810191818101908684111561043457600080fd5b8286015b8481101561045f57803560ff811681146104525760008081fd5b8352918301918301610438565b509695505050505050565b6000806040838503121561047d57600080fd5b823567ffffffffffffffff8082111561049557600080fd5b818501915085601f8301126104a957600080fd5b813560206104b9610410836103cb565b82815260059290921b840181019181810190898411156104d857600080fd5b8286015b84811015610510578035868111156104f45760008081fd5b6105028c86838b010161030d565b8452509183019183016104dc565b509650508601359250508082111561052757600080fd5b50610534858286016103ef565b9150509250929050565b634e487b7160e01b600052601160045260246000fd5b818103818111156105675761056761053e565b92915050565b60008261058a57634e487b7160e01b600052601260045260246000fd5b500490565b60005b838110156105aa578181015183820152602001610592565b50506000910152565b60608152600084518060608401526105d281608085016020890161058f565b60208301949094525060408101919091526080601f909201601f19160101919050565b6000825161060781846020870161058f565b9190910192915050565b634e487b7160e01b600052603260045260246000fd5b6000600182016106395761063961053e565b506001019056fea26469706673582212202d4652608428363a379406792696fcc2d14d3c02da9a538134aa7a450b49305c64736f6c63430008140033",
  "linkReferences": {},
  "deployedLinkReferences": {}
}