{
  "_format": "hh-sol-artifact-1",
  "contractName": "BlockHash",
  "sourceName": "contracts/BlockHash.sol",
  "abi": [
    {
      "inputs": [
        {
          "internalType": "uint256",
          "name": "number",
          "type": "uint256"
        }
      ],
      "name": "getBlockHash",
      "outputs": [
        {
          "internalType": "bytes32",
          "name": "",
          "type": "bytes32"
        }
      ],
      "stateMutability": "view",
      "type": "function"
    }
  ],
  "bytecode": "0x6080604052348015600f57600080fd5b50609c8061001e6000396000f3fe6080604052348015600f57600080fd5b506004361060285760003560e01c8063ee82ac5e14602d575b600080fd5b603c6038366004604e565b4090565b60405190815260200160405180910390f35b600060208284031215605f57600080fd5b503591905056fea264697066735822122042b46c4e6e712ed1c2d803c9c676239a79e735a9bc11242630c1df590d8b62ce64736f6c63430008160033",
  "linkReferences": {},
  "deployedLinkReferences": {}
}