{
  "_format": "hh-sol-artifact-1",
  "contractName": "StorageExt",
  "sourceName": "contracts/StorageExt.sol",
  "abi": [
    {
      "inputs": [
        {
          "internalType": "uint64",
          "name": "index",
          "type": "uint64"
        }
      ],
      "name": "change",
      "outputs": [],
      "stateMutability": "nonpayable",
      "type": "function"
    },
    {
      "inputs": [
        {
          "internalType": "bytes[]",
          "name": "callTasks",
          "type": "bytes[]"
        },
        {
          "internalType": "uint8[]",
          "name": "returnFlags",
          "type": "uint8[]"
        }
      ],
      "name": "multiCall",
      "outputs": [],
      "stateMutability": "nonpayable",
      "type": "function"
    },
    {
      "inputs": [
        {
          "internalType": "bytes",
          "name": "data",
          "type": "bytes"
        },
        {
          "internalType": "uint256",
          "name": "restLevel",
          "type": "uint256"
        },
        {
          "internalType": "uint256",
          "name": "successBits",
          "type": "uint256"
        }
      ],
      "name": "recursiveCall",
      "outputs": [],
      "stateMutability": "nonpayable",
      "type": "function"
    },
    {
      "inputs": [
        {
          "internalType": "uint64",
          "name": "index",
          "type": "uint64"
        }
      ],
      "name": "reset",
      "outputs": [],
      "stateMutability": "nonpayable",
      "type": "function"
    },
    {
      "inputs": [
        {
          "internalType": "address",
          "name": "addr",
          "type": "address"
        }
      ],
      "name": "resetSponsored",
      "outputs": [],
      "stateMutability": "nonpayable",
      "type": "function"
    },
    {
      "inputs": [
        {
          "internalType": "uint64",
          "name": "index",
          "type": "uint64"
        }
      ],
      "name": "set",
      "outputs": [],
      "stateMutability": "nonpayable",
      "type": "function"
    },
    {
      "inputs": [
        {
          "internalType": "address",
          "name": "addr",
          "type": "address"
        }
      ],
      "name": "setSponsored",
      "outputs": [],
      "stateMutability": "nonpayable",
      "type": "function"
    }
  ],
  "bytecode": "0x608060405234801561001057600080fd5b5061095f806100206000396000f3fe608060405234801561001057600080fd5b506004361061007d5760003560e01c806362ad67e81161005b57806362ad67e8146100d657806370172948146100e95780638d6c4eb0146100fc578063e365981c1461010f57600080fd5b806307c488ff146100825780631732ec51146100975780631d8c311f146100aa575b600080fd5b6100956100903660046104f5565b610138565b005b6100956100a53660046105dd565b61016a565b6100956100b83660046104f5565b67ffffffffffffffff16600090815260208190526040902060019055565b6100956100e436600461062b565b61028d565b6100956100f736600461062b565b61033c565b61009561010a3660046106f3565b6103b5565b61009561011d3660046104f5565b67ffffffffffffffff16600090815260208190526040812055565b67ffffffffffffffff811660009081526020819052604081208054600192906101629084906107dd565b909155505050565b60006001831061022f5730846101816001866107f6565b61018c600286610809565b60405160240161019e9392919061084f565b60408051601f198184030181529181526020820180516001600160e01b0316631732ec5160e01b179052516101d39190610891565b6000604051808303816000865af19150503d8060008114610210576040519150601f19603f3d011682016040523d82523d6000602084013e610215565b606091505b50909150506001821660000361022a57600080fd5b610287565b604051309061023f908690610891565b6000604051808303816000865af19150503d806000811461027c576040519150601f19603f3d011682016040523d82523d6000602084013e610281565b606091505b50909150505b50505050565b6040805160018082528183019092526000916020808301908036833701905050905081816000815181106102c3576102c36108ad565b6001600160a01b039092166020928302919091019091015260405163694996db60e11b8152600161011160931b019063d2932db6906103069084906004016108c3565b600060405180830381600087803b15801561032057600080fd5b505af1158015610334573d6000803e3d6000fd5b505050505050565b604080516001808252818301909252600091602080830190803683370190505090508181600081518110610372576103726108ad565b6001600160a01b0390921660209283029190910190910152604051630809469f60e11b8152600161011160931b01906310128d3e906103069084906004016108c3565b80518251146104005760405162461bcd60e51b8152602060048201526013602482015272092dcc6dedce6d2e6e8cadce840d8cadccee8d606b1b604482015260640160405180910390fd5b60005b82518110156104f0576000306001600160a01b031684838151811061042a5761042a6108ad565b602002602001015160405161043f9190610891565b6000604051808303816000865af19150503d806000811461047c576040519150601f19603f3d011682016040523d82523d6000602084013e610481565b606091505b5050905060008360008151811061049a5761049a6108ad565b602002602001015190508060ff166002036104b457600080fd5b816104db578060ff166003036104cb575050505050565b8060ff166000036104db57600080fd5b505080806104e890610910565b915050610403565b505050565b60006020828403121561050757600080fd5b813567ffffffffffffffff8116811461051f57600080fd5b9392505050565b634e487b7160e01b600052604160045260246000fd5b604051601f8201601f1916810167ffffffffffffffff8111828210171561056557610565610526565b604052919050565b600082601f83011261057e57600080fd5b813567ffffffffffffffff81111561059857610598610526565b6105ab601f8201601f191660200161053c565b8181528460208386010111156105c057600080fd5b816020850160208301376000918101602001919091529392505050565b6000806000606084860312156105f257600080fd5b833567ffffffffffffffff81111561060957600080fd5b6106158682870161056d565b9660208601359650604090950135949350505050565b60006020828403121561063d57600080fd5b81356001600160a01b038116811461051f57600080fd5b600067ffffffffffffffff82111561066e5761066e610526565b5060051b60200190565b600082601f83011261068957600080fd5b8135602061069e61069983610654565b61053c565b82815260059290921b840181019181810190868411156106bd57600080fd5b8286015b848110156106e857803560ff811681146106db5760008081fd5b83529183019183016106c1565b509695505050505050565b6000806040838503121561070657600080fd5b823567ffffffffffffffff8082111561071e57600080fd5b818501915085601f83011261073257600080fd5b8135602061074261069983610654565b82815260059290921b8401810191818101908984111561076157600080fd5b8286015b848110156107995780358681111561077d5760008081fd5b61078b8c86838b010161056d565b845250918301918301610765565b50965050860135925050808211156107b057600080fd5b506107bd85828601610678565b9150509250929050565b634e487b7160e01b600052601160045260246000fd5b808201808211156107f0576107f06107c7565b92915050565b818103818111156107f0576107f06107c7565b60008261082657634e487b7160e01b600052601260045260246000fd5b500490565b60005b8381101561084657818101518382015260200161082e565b50506000910152565b606081526000845180606084015261086e81608085016020890161082b565b60208301949094525060408101919091526080601f909201601f19160101919050565b600082516108a381846020870161082b565b9190910192915050565b634e487b7160e01b600052603260045260246000fd5b6020808252825182820181905260009190848201906040850190845b818110156109045783516001600160a01b0316835292840192918401916001016108df565b50909695505050505050565b600060018201610922576109226107c7565b506001019056fea264697066735822122047873fbf2f07a085387e72c91a3ee76db0c01547d3488916c8ad24c9d083101864736f6c63430008130033",
  "linkReferences": {},
  "deployedLinkReferences": {}
}