{
  "_format": "hh-sol-artifact-1",
  "contractName": "StorageExt",
  "sourceName": "contracts/StorageExt.sol",
  "abi": [
    {
      "inputs": [
        {
          "internalType": "uint64",
          "name": "index",
          "type": "uint64"
        },
        {
          "internalType": "uint256",
          "name": "value",
          "type": "uint256"
        }
      ],
      "name": "assertValue",
      "outputs": [],
      "stateMutability": "view",
      "type": "function"
    },
    {
      "inputs": [
        {
          "internalType": "address",
          "name": "receiver",
          "type": "address"
        },
        {
          "internalType": "bytes",
          "name": "data",
          "type": "bytes"
        },
        {
          "internalType": "uint8",
          "name": "returnFlag",
          "type": "uint8"
        }
      ],
      "name": "callAnother",
      "outputs": [],
      "stateMutability": "nonpayable",
      "type": "function"
    },
    {
      "inputs": [
        {
          "internalType": "uint64",
          "name": "index",
          "type": "uint64"
        }
      ],
      "name": "change",
      "outputs": [],
      "stateMutability": "nonpayable",
      "type": "function"
    },
    {
      "inputs": [],
      "name": "fail",
      "outputs": [],
      "stateMutability": "pure",
      "type": "function"
    },
    {
      "inputs": [
        {
          "internalType": "address",
          "name": "addr",
          "type": "address"
        }
      ],
      "name": "getSponsored",
      "outputs": [
        {
          "internalType": "bool",
          "name": "",
          "type": "bool"
        }
      ],
      "stateMutability": "view",
      "type": "function"
    },
    {
      "inputs": [
        {
          "internalType": "bytes[]",
          "name": "callTasks",
          "type": "bytes[]"
        }
      ],
      "name": "multiCall",
      "outputs": [],
      "stateMutability": "nonpayable",
      "type": "function"
    },
    {
      "inputs": [
        {
          "internalType": "bytes[]",
          "name": "callTasks",
          "type": "bytes[]"
        },
        {
          "internalType": "address[]",
          "name": "receiver",
          "type": "address[]"
        }
      ],
      "name": "multiCallExternal",
      "outputs": [],
      "stateMutability": "nonpayable",
      "type": "function"
    },
    {
      "inputs": [
        {
          "internalType": "bytes[]",
          "name": "callTasks",
          "type": "bytes[]"
        },
        {
          "internalType": "address[]",
          "name": "receiver",
          "type": "address[]"
        },
        {
          "internalType": "uint8[]",
          "name": "returnFlags",
          "type": "uint8[]"
        }
      ],
      "name": "multiCallExternalWithFlag",
      "outputs": [],
      "stateMutability": "nonpayable",
      "type": "function"
    },
    {
      "inputs": [
        {
          "internalType": "bytes[]",
          "name": "callTasks",
          "type": "bytes[]"
        },
        {
          "internalType": "uint8[]",
          "name": "returnFlags",
          "type": "uint8[]"
        }
      ],
      "name": "multiCallWithFlag",
      "outputs": [],
      "stateMutability": "nonpayable",
      "type": "function"
    },
    {
      "inputs": [
        {
          "internalType": "bytes",
          "name": "data",
          "type": "bytes"
        },
        {
          "internalType": "uint256",
          "name": "restLevel",
          "type": "uint256"
        },
        {
          "internalType": "uint8[]",
          "name": "returnFlags",
          "type": "uint8[]"
        }
      ],
      "name": "recursiveCall",
      "outputs": [],
      "stateMutability": "nonpayable",
      "type": "function"
    },
    {
      "inputs": [
        {
          "internalType": "uint64",
          "name": "index",
          "type": "uint64"
        }
      ],
      "name": "reset",
      "outputs": [],
      "stateMutability": "nonpayable",
      "type": "function"
    },
    {
      "inputs": [
        {
          "internalType": "address",
          "name": "addr",
          "type": "address"
        }
      ],
      "name": "resetSponsored",
      "outputs": [],
      "stateMutability": "nonpayable",
      "type": "function"
    },
    {
      "inputs": [
        {
          "internalType": "address payable",
          "name": "addr",
          "type": "address"
        }
      ],
      "name": "selfDestruct",
      "outputs": [],
      "stateMutability": "nonpayable",
      "type": "function"
    },
    {
      "inputs": [],
      "name": "selfRevert",
      "outputs": [],
      "stateMutability": "pure",
      "type": "function"
    },
    {
      "inputs": [
        {
          "internalType": "uint64",
          "name": "index",
          "type": "uint64"
        }
      ],
      "name": "set",
      "outputs": [],
      "stateMutability": "nonpayable",
      "type": "function"
    },
    {
      "inputs": [
        {
          "internalType": "address",
          "name": "addr",
          "type": "address"
        }
      ],
      "name": "setSponsored",
      "outputs": [],
      "stateMutability": "nonpayable",
      "type": "function"
    }
  ],
  "bytecode": "0x608060405234801561001057600080fd5b506111bf806100206000396000f3fe608060405234801561001057600080fd5b50600436106101005760003560e01c8063653efc0711610097578063a4b8e66911610066578063a4b8e669146101f8578063a9cc47181461021f578063d9a9811614610224578063e365981c1461023757600080fd5b8063653efc07146101b757806370172948146101ca57806372a36f1f146101dd578063824b9e32146101e557600080fd5b8063348a0cdc116100d3578063348a0cdc1461016b5780633e8eb32b1461017e5780633f5a0bdd1461019157806362ad67e8146101a457600080fd5b80630719706d1461010557806307c488ff1461011a5780631d8c311f1461013a5780631fbf703b14610158575b600080fd5b610118610113366004610ca7565b610255565b005b610118610128366004610d21565b6001600160401b031680546001019055565b610118610148366004610d21565b60016001600160401b0390911655565b610118610166366004610dc3565b610316565b610118610179366004610e4a565b610458565b61011861018c366004610e86565b6104e8565b61011861019f366004610edb565b610602565b6101186101b2366004610edb565b61060e565b6101186101c5366004610ef8565b6106bd565b6101186101d8366004610edb565b61076b565b610118600080fd5b6101186101f3366004610f51565b6107e4565b61020b610206366004610edb565b6108d9565b604051901515815260200160405180910390f35b610118fe5b610118610232366004610fb0565b610958565b610118610245366004610d21565b60006001600160401b0390911655565b805182511461027f5760405162461bcd60e51b815260040161027690610fda565b60405180910390fd5b600082516001600160401b0381111561029a5761029a610ac4565b6040519080825280602002602001820160405280156102c3578160200160208202803683370190505b50905060005b835181101561030557308282815181106102e5576102e561101d565b6001600160a01b03909216602092830291909101909101526001016102c9565b50610311838284610316565b505050565b80518351146103375760405162461bcd60e51b815260040161027690610fda565b81518351146103885760405162461bcd60e51b815260206004820152601f60248201527f496e636f6e73697374656e74206c656e677468206f66207265636569766572006044820152606401610276565b60005b83518110156104525760008382815181106103a8576103a861101d565b60200260200101516001600160a01b03168583815181106103cb576103cb61101d565b60200260200101516040516103e09190611057565b6000604051808303816000865af19150503d806000811461041d576040519150601f19603f3d011682016040523d82523d6000602084013e610422565b606091505b505090506104498184848151811061043c5761043c61101d565b60200260200101516109a6565b5060010161038b565b50505050565b600081516001600160401b0381111561047357610473610ac4565b60405190808252806020026020018201604052801561049c578160200160208202803683370190505b50905060005b82518110156104d95760008282815181106104bf576104bf61101d565b60ff909216602092830291909101909101526001016104a2565b506104e48282610255565b5050565b6000600183106105945730846104ff600186611073565b8460405160240161051293929190611094565b60408051601f198184030181529181526020820180516001600160e01b0316631732ec5160e01b179052516105479190611057565b6000604051808303816000865af19150503d8060008114610584576040519150601f19603f3d011682016040523d82523d6000602084013e610589565b606091505b5050809150506105ec565b60405130906105a4908690611057565b6000604051808303816000865af19150503d80600081146105e1576040519150601f19603f3d011682016040523d82523d6000602084013e6105e6565b606091505b50909150505b6104528183858151811061043c5761043c61101d565b806001600160a01b0316ff5b6040805160018082528183019092526000916020808301908036833701905050905081816000815181106106445761064461101d565b6001600160a01b039092166020928302919091019091015260405163694996db60e11b8152600161011160931b019063d2932db69061068790849060040161111a565b600060405180830381600087803b1580156106a157600080fd5b505af11580156106b5573d6000803e3d6000fd5b505050505050565b80518251146106de5760405162461bcd60e51b815260040161027690610fda565b600082516001600160401b038111156106f9576106f9610ac4565b604051908082528060200260200182016040528015610722578160200160208202803683370190505b50905060005b835181101561075f5760008282815181106107455761074561101d565b60ff90921660209283029190910190910152600101610728565b50610311838383610316565b6040805160018082528183019092526000916020808301908036833701905050905081816000815181106107a1576107a161101d565b6001600160a01b0390921660209283029190910190910152604051630809469f60e11b8152600161011160931b01906310128d3e9061068790849060040161111a565b604080516001808252818301909252600091816020015b60608152602001906001900390816107fb57905050905082816000815181106108265761082661101d565b602090810291909101015260408051600180825281830190925260009181602001602082028036833701905050905084816000815181106108695761086961101d565b6001600160a01b03929092166020928302919091019091015260408051600180825281830190925260009181602001602082028036833701905050905083816000815181106108ba576108ba61101d565b602002602001019060ff16908160ff16815250506106b5838383610316565b604051635b59a93960e11b81523060048201526001600160a01b0382166024820152600090600161011160931b019063b6b3527290604401602060405180830381865afa15801561092e573d6000803e3d6000fd5b505050506040513d601f19601f820116820180604052508101906109529190611167565b92915050565b6001600160401b03821680548281146104525760405162461bcd60e51b815260206004820152601060248201526f556e65787065637465642076616c756560801b6044820152606401610276565b81610a12578060ff166003036109ba575050565b8060ff16600003610a0d5760405162461bcd60e51b815260206004820181905260248201527f5265766572742062656361757365206f6620657865637574696f6e206661696c6044820152606401610276565b610a71565b8060ff16600203610a715760405162461bcd60e51b8152602060048201526024808201527f5265766572742062656361757365206f6620756e6578706563746564207375636044820152636365737360e01b6064820152608401610276565b8060ff166004036104e45760405162461bcd60e51b815260206004820152601d60248201527f5265766572742062656361757365206f662072657475726e20666c61670000006044820152606401610276565b634e487b7160e01b600052604160045260246000fd5b604051601f8201601f191681016001600160401b0381118282101715610b0257610b02610ac4565b604052919050565b60006001600160401b03821115610b2357610b23610ac4565b5060051b60200190565b600082601f830112610b3e57600080fd5b81356001600160401b03811115610b5757610b57610ac4565b610b6a601f8201601f1916602001610ada565b818152846020838601011115610b7f57600080fd5b816020850160208301376000918101602001919091529392505050565b600082601f830112610bad57600080fd5b81356020610bc2610bbd83610b0a565b610ada565b82815260059290921b84018101918181019086841115610be157600080fd5b8286015b84811015610c205780356001600160401b03811115610c045760008081fd5b610c128986838b0101610b2d565b845250918301918301610be5565b509695505050505050565b803560ff81168114610c3c57600080fd5b919050565b600082601f830112610c5257600080fd5b81356020610c62610bbd83610b0a565b8083825260208201915060208460051b870101935086841115610c8457600080fd5b602086015b84811015610c2057610c9a81610c2b565b8352918301918301610c89565b60008060408385031215610cba57600080fd5b82356001600160401b0380821115610cd157600080fd5b610cdd86838701610b9c565b93506020850135915080821115610cf357600080fd5b50610d0085828601610c41565b9150509250929050565b80356001600160401b0381168114610c3c57600080fd5b600060208284031215610d3357600080fd5b610d3c82610d0a565b9392505050565b6001600160a01b0381168114610d5857600080fd5b50565b600082601f830112610d6c57600080fd5b81356020610d7c610bbd83610b0a565b8083825260208201915060208460051b870101935086841115610d9e57600080fd5b602086015b84811015610c20578035610db681610d43565b8352918301918301610da3565b600080600060608486031215610dd857600080fd5b83356001600160401b0380821115610def57600080fd5b610dfb87838801610b9c565b94506020860135915080821115610e1157600080fd5b610e1d87838801610d5b565b93506040860135915080821115610e3357600080fd5b50610e4086828701610c41565b9150509250925092565b600060208284031215610e5c57600080fd5b81356001600160401b03811115610e7257600080fd5b610e7e84828501610b9c565b949350505050565b600080600060608486031215610e9b57600080fd5b83356001600160401b0380821115610eb257600080fd5b610ebe87838801610b2d565b9450602086013593506040860135915080821115610e3357600080fd5b600060208284031215610eed57600080fd5b8135610d3c81610d43565b60008060408385031215610f0b57600080fd5b82356001600160401b0380821115610f2257600080fd5b610f2e86838701610b9c565b93506020850135915080821115610f4457600080fd5b50610d0085828601610d5b565b600080600060608486031215610f6657600080fd5b8335610f7181610d43565b925060208401356001600160401b03811115610f8c57600080fd5b610f9886828701610b2d565b925050610fa760408501610c2b565b90509250925092565b60008060408385031215610fc357600080fd5b610fcc83610d0a565b946020939093013593505050565b60208082526023908201527f496e636f6e73697374656e74206c656e677468206f662072657475726e20666c60408201526261677360e81b606082015260800190565b634e487b7160e01b600052603260045260246000fd5b60005b8381101561104e578181015183820152602001611036565b50506000910152565b60008251611069818460208701611033565b9190910192915050565b8181038181111561095257634e487b7160e01b600052601160045260246000fd5b606081526000845180606084015260206110b5826080860160208a01611033565b6020808501879052601f92909201601f191684018481036080908101604087015286519082018190529286019260009160a001905b8083101561110d57845160ff1682529383019360019290920191908301906110ea565b5098975050505050505050565b6020808252825182820181905260009190848201906040850190845b8181101561115b5783516001600160a01b031683529284019291840191600101611136565b50909695505050505050565b60006020828403121561117957600080fd5b81518015158114610d3c57600080fdfea26469706673582212209276b9256fd1b6e1d60b3eae5fbebbfd0aa0cd6d93821c95341ffe4c3b6610f964736f6c63430008160033",
  "linkReferences": {},
  "deployedLinkReferences": {}
}