{
  "_format": "hh-sol-artifact-1",
  "contractName": "CrossSpaceEventTestConfluxSide",
  "sourceName": "contracts/origin/CrossSpaceEventTest.sol",
  "abi": [
    {
      "anonymous": false,
      "inputs": [
        {
          "indexed": false,
          "internalType": "uint256",
          "name": "",
          "type": "uint256"
        }
      ],
      "name": "TestEvent",
      "type": "event"
    },
    {
      "inputs": [
        {
          "internalType": "uint256",
          "name": "n",
          "type": "uint256"
        },
        {
          "internalType": "bytes20",
          "name": "addr",
          "type": "bytes20"
        }
      ],
      "name": "emitBoth",
      "outputs": [],
      "stateMutability": "nonpayable",
      "type": "function"
    },
    {
      "inputs": [
        {
          "internalType": "uint256",
          "name": "n",
          "type": "uint256"
        },
        {
          "internalType": "bytes20",
          "name": "addr",
          "type": "bytes20"
        }
      ],
      "name": "emitComplex",
      "outputs": [],
      "stateMutability": "nonpayable",
      "type": "function"
    },
    {
      "inputs": [
        {
          "internalType": "uint256",
          "name": "n",
          "type": "uint256"
        }
      ],
      "name": "emitConflux",
      "outputs": [],
      "stateMutability": "nonpayable",
      "type": "function"
    }
  ],
  "bytecode": "0x608060405234801561001057600080fd5b50610517806100206000396000f3fe608060405234801561001057600080fd5b50600436106100415760003560e01c80632a5dc1e71461004657806363c35ff61461005b578063c2d99cc81461006e575b600080fd5b610059610054366004610336565b610081565b005b610059610069366004610336565b610244565b61005961007c366004610378565b610312565b6040518281526000805160206104c28339815191529060200160405180910390a160408051602480820185905282518083039091018152604490910182526020810180516001600160e01b0316630ca2606f60e31b179052905163bea05ee360e01b8152600661011160931b019163bea05ee3916101039185916004016103b5565b6000604051808303816000875af1158015610122573d6000803e3d6000fd5b505050506040513d6000823e601f3d908101601f1916820160405261014a9190810190610414565b506040518281526000805160206104c28339815191529060200160405180910390a16040805160248101849052600260448083019190915282518083039091018152606490910182526020810180516001600160e01b0316634e4b06fb60e11b179052905163bea05ee360e01b8152600661011160931b019163bea05ee3916101d79185916004016103b5565b6000604051808303816000875af11580156101f6573d6000803e3d6000fd5b505050506040513d6000823e601f3d908101601f1916820160405261021e9190810190610414565b506040518281526000805160206104c28339815191529060200160405180910390a15050565b6040518281526000805160206104c28339815191529060200160405180910390a160408051602480820185905282518083039091018152604490910182526020810180516001600160e01b0316630ca2606f60e31b179052905163bea05ee360e01b8152600661011160931b019163bea05ee3916102c69185916004016103b5565b6000604051808303816000875af11580156102e5573d6000803e3d6000fd5b505050506040513d6000823e601f3d908101601f1916820160405261030d9190810190610414565b505050565b6040518181526000805160206104c28339815191529060200160405180910390a150565b6000806040838503121561034957600080fd5b8235915060208301356bffffffffffffffffffffffff198116811461036d57600080fd5b809150509250929050565b60006020828403121561038a57600080fd5b5035919050565b60005b838110156103ac578181015183820152602001610394565b50506000910152565b6bffffffffffffffffffffffff198316815260406020820152600082518060408401526103e9816060850160208701610391565b601f01601f1916919091016060019392505050565b634e487b7160e01b600052604160045260246000fd5b60006020828403121561042657600080fd5b815167ffffffffffffffff8082111561043e57600080fd5b818401915084601f83011261045257600080fd5b815181811115610464576104646103fe565b604051601f8201601f19908116603f0116810190838211818310171561048c5761048c6103fe565b816040528281528760208487010111156104a557600080fd5b6104b6836020830160208801610391565b97965050505050505056fe1440c4dd67b4344ea1905ec0318995133b550f168b4ee959a0da6b503d7d2414a2646970667358221220b81f5c185a7906556ba950e99b639cce1dfaeb7e3d30bae6c58c220134fc234a64736f6c63430008160033",
  "linkReferences": {},
  "deployedLinkReferences": {}
}